:100000000C9463000C948B000C948B000C944106B0
:100010000C9441060C9441060C948B000C948B00BC
:100020000C948B000C948B000C948B000C948B0024
:100030000C948B000C948B000C948B000C948B0014
:100040000C94C8080C948B000C94E1040C94BB0431
:100050000C948B000C948B000C948B000C948B00F4
:100060000C9413050C948B00000000002400270062
:100070002A0000000008000201000003040700003D
:1000800000000000000000000000230026002900FE
:1000900000000000250028002B00040404040404D0
:1000A0000404020202020202030303030303010227
:1000B00004081020408001020408102001020408F6
:1000C0001020D90BB90B11241FBECFEFD8E0DEBF33
:1000D000CDBF23E0AEE6B1E001C01D92A936B20764
:1000E000E1F711E0A0E0B1E0E6EDFDE102C005902E
:1000F0000D92AE36B107D9F710E0C2E6D0E004C0E9
:100100002197FE010E94DC0CC136D107C9F70E947D
:1001100012090C94DE0E0C9400000895CF93DF9327
:10012000AC01E0914202F09143023097F1F09091DE
:100130004102809140029817C0F090E0292F30E0F2
:100140002617370754F4D901A055BE4FEA01C20F54
:10015000D31F28812C939F5FF1CF109241026093AF
:100160004002CB01DF91CF910994DF91CF910895A7
:10017000DB0114964D915C9115976D917C91DC019A
:10018000ED91FC910280F381E02D0994CF92DF92F2
:10019000EF92FF920F931F93CF93DF936C017A013D
:1001A0008B01C0E0D0E0CE15DF0581F0D8016D9164
:1001B0008D01D601ED91FC910190F081E02DC601F9
:1001C0000995892B11F02196EECF7E01C701DF91B1
:1001D000CF911F910F91FF90EF90DF90CF900895F6
:1001E000FC01538D448D252F30E0842F90E0821B3D
:1001F000930B541710F0CF96089501970895FC01C2
:10020000918D828D981761F0828DDF01A80FB11D4D
:100210005D968C91928D9F5F9F73928F90E0089571
:100220008FEF9FEF0895FC01918D828D981731F02B
:10023000828DE80FF11D858D90E008958FEF9FEF7F
:100240000895FC01918D228D892F90E0805C9F4F55
:10025000821B91098F739927089580E592E00E948F
:10026000210121E0892B09F420E0822F0895FC016F
:10027000848DDF01A80FB11DA35ABF4F2C91848D2F
:1002800090E001968F739927848FA689B7892C9364
:10029000A089B1898C91837080648C93938D848DB7
:1002A000981306C00288F389E02D80818F7D8083BA
:1002B0000895EF92FF920F931F93CF93DF93EC017A
:1002C00081E0888F9B8D8C8D981305C0E889F98912
:1002D000808185FD26C0F62E0B8D10E00F5F1F4F2D
:1002E0000F731127E02E8C8DE8120CC00FB607FC9F
:1002F000FACFE889F989808185FFF5CFCE010E9488
:100300003701F1CF8B8DFE01E80FF11DE35AFF4F4E
:10031000F0829FB7F8940B8FEA89FB898081806215
:100320000AC09FB7F894EE89FF896083E889F9894C
:1003300080818370806480839FBF81E090E0DF9143
:10034000CF911F910F91FF90EF900895CF93DF937E
:10035000EC01888D8823C9F0EA89FB89808185FDBD
:1003600005C0A889B9898C9186FD0FC00FB607FC1E
:10037000F5CF808185FFF2CFA889B9898C9185FF5F
:10038000EDCFCE010E943701E7CFDF91CF910895E5
:1003900085ED8093BC008091BC0084FDFCCF109261
:1003A0003D0208954091F001262F30E0240F311DC9
:1003B00021323105DCF420913D022430C9F4FC01E6
:1003C00080E090E0861758F43091F0012191DC0133
:1003D000A053BE4FA30FB11D2C930196F3CF809174
:1003E000F001680F6093F00180E0089581E00895C6
:1003F00082E008950895E091410280914002E8175B
:1004000030F4F0E0E055FE4F808190E008958FEFEA
:100410009FEF08959091410280914002981750F407
:10042000E92FF0E0E055FE4F208130E09F5F909390
:10043000410202C02FEF3FEFC901089580914002B1
:1004400090E020914102821B91090895CF93DF93A0
:10045000CB01EA01642F0E94D201CE01DF91CF913E
:100460000895CF93DF931F92CDB7DEB7698361E024
:10047000CE0101960E94D20181E090E00F90DF91C1
:10048000CF91089520914E0230914F0228173907DD
:1004900071F490914C0280914D02981741F0E091D7
:1004A0004C02F0E0E059FE4F808190E008958FEF1C
:1004B0009FEF08951F93CF93DF93DC015C968D919E
:1004C0009C915D97009739F421E030E013963C93BE
:1004D0002E9312973BC05196ED91FC9152975096F6
:1004E0002C915097322F30951FB75E964C915E97A6
:1004F000742F727041FD6095F8944081772311F05C
:10050000422B01C043234083EC012197F1F748E0DF
:10051000508160FF02C0522B01C053235083EC0175
:100520002197F1F76695415099F78081772319F06B
:100530008323808302C0282B20831FBF5C968D916C
:100540009C915D970197F1F781E090E0DF91CF9169
:100550001F91089520914E0230914F0228173907BC
:1005600071F480914D0220914C0290E0805C9F4F8D
:10057000821B910960E470E00E94B40C089580E051
:1005800090E0089520914E0230914F0228173907CC
:10059000B9F490914C0280914D02981789F0E09146
:1005A0004C02F0E0E059FE4F808120914C0230E097
:1005B0002F5F3F4F2F73332720934C0290E0089515
:1005C0008FEF9FEF0895089580E090E0089564E62E
:1005D00070E080E090E00E948E086EEF8DE193E085
:1005E0000E945A0264E670E080E090E00E948E086B
:1005F00060EA8DE193E00E945A0264E670E080E0D8
:1006000090E00E948E0810926F0110926E0160E0DF
:100610008DE193E00E945A0264E670E080E090E091
:100620000E948E0860E08DE193E00E945A0264E629
:1006300070E080E090E00E948E0860E08DE193E041
:100640000E945A0264E670E080E090E00E948E080A
:1006500060EA8DE193E00C945A02EF92FF920F93BF
:100660001F93CF93DF937C018B01EC01CF54DF4FBD
:10067000C60FD71F6EEF8DE193E00E945A0264E629
:1006800070E080E090E00E948E0861EB8DE193E0E5
:100690000E945A0264E670E080E090E00E948E08BA
:1006A0006E2D8DE193E00E945A0264E670E080E0D6
:1006B00090E00E948E08602F8DE193E00E945A0224
:1006C00064E670E080E090E00E948E086091440251
:1006D0008DE193E00E945A0264E670E080E090E0D1
:1006E0000E948E086C2F8DE193E0DF91CF911F91D6
:1006F0000F91FF90EF900C945A020E94C90E0F9335
:100700001F93CF93DF93EC0188819981009729F0A3
:100710002A813B812617370788F48B016F5F7F4F53
:100720000E94030E009761F0998388831B830A83DC
:100730002C813D81232B11F4FC01108281E001C04A
:1007400080E0DF91CF911F910F910895EF92FF927A
:100750000F931F93CF93DF936115710511F480E020
:100760001CC041155105C1F07B01EC018C819D81BC
:100770008A01080F191FB801CE010E947F03882348
:1007800071F3288139818C819D81B701820F931F7C
:100790000E94D70E1D830C8381E0DF91CF911F91C2
:1007A0000F91FF90EF900895CF93DF9300D0CDB7D6
:1007B000DEB769831A8241E050E0BE016F5F7F4F70
:1007C0000E94A6030F900F90DF91CF910895CF93D1
:1007D000DF93D1E08091400290E020914102821BA2
:1007E0009109181619067CF48DEE92E00E940A0217
:1007F000C82F682F8BE093E00E94D403CA3051F7D2
:10080000D0934B02E7CFDF91CF910895CF93DF9341
:10081000D1E080E592E00E942101892B79F080E50A
:1008200092E00E94FF00C82F682F8BE093E00E94A7
:10083000D403CA3071F7D0934B02EBCFDF91CF9145
:1008400008950E942D0181110C9406040895CF9300
:10085000DF93EC0188819981009711F00E947A0D55
:10086000198218821D821C821B821A82DF91CF910D
:100870000895CF93DF93EC016115710561F0FB01E1
:1008800001900020E9F73197AF01461B570B0E94FA
:10089000A603811103C0CE010E942704CE01DF917F
:1008A000CF910895EF92FF920F931F93CF93DF9311
:1008B000EC017B018A01BA010E947F03811104C00F
:1008C000CE010E94270407C01D830C83B7018881D5
:1008D00099810E94D70ECE01DF91CF911F910F9188
:1008E000FF90EF900895CF93DF93EC0161157105B0
:1008F00059F0FB0101900020E9F73197AF01461B49
:10090000570B0E94520402C00E942704CE01DF91BF
:10091000CF910895CF93DF93EC01FB0186179707E2
:1009200061F0608171816115710529F04481558103
:100930000E94520402C00E942704CE01DF91CF9191
:100940000895FC01808191810C947A0DFC01118243
:10095000108213821282158214826115710551F082
:10096000FB0101900020E9F73197AF01461B570BBF
:100970000C94520408951F920F920FB60F921124F7
:100980002F933F934F935F936F937F938F939F9397
:10099000AF93BF93EF93FF9380E592E00E943701FE
:1009A000FF91EF91BF91AF919F918F917F916F9147
:1009B0005F914F913F912F910F900FBE0F901F901D
:1009C00018951F920F920FB60F9211242F938F93A9
:1009D0009F93EF93FF93E0916002F0916102808119
:1009E000E0916602F091670282FD12C090818091D1
:1009F00069028F5F8F7320916A02821751F0E09134
:100A00006902F0E0E05BFD4F958F8093690201C0C1
:100A10008081FF91EF919F918F912F910F900FBE49
:100A20000F901F9018951F920F920FB60F921124DE
:100A30002F933F934F935F936F937F938F939F93E6
:100A4000AF93BF93EF93FF938091B900887F803677
:100A500009F49CC068F5883209F45BC090F48031D9
:100A600009F454C038F4882309F4F6C0883009F436
:100A70004DC0F6C0883109F44CC0803209F45DC025
:100A8000EFC0803409F468C048F4803309F455C0DD
:100A9000883309F0E5C080931302D8C0803509F48B
:100AA0004FC0883509F45DC0883409F0D9C0D6C07C
:100AB000883909F4C7C0A8F4883709F467C038F446
:100AC000883609F463C0803709F460C0C9C088382B
:100AD00009F4B8C0803909F45FC0803809F0C0C09B
:100AE0005BC0803B09F486C038F4803A09F466C0E4
:100AF000883A09F47FC0B4C0803C09F4A7C0883CA0
:100B000009F4A4C0883B09F48AC0AAC080913602C7
:100B100010C09091350280913402981770F5E091E1
:100B2000350281E08E0F80933502F0E0EC5EFD4FE0
:100B300080818093BB0085EC86C0809313028EC0B9
:100B4000E091350281E08E0F809335028091BB00E9
:100B5000F0E0EC5EFD4F808390913502809134028D
:100B60006EC0E091350281E08E0F80933502809156
:100B7000BB00F0E0EC5EFD4F808380913C02811170
:100B80006DC081E080933B0284EA61C083E0809382
:100B90003D0210921202CFCF80911202803208F0F3
:100BA00051C0E091120281E08E0F80931202809179
:100BB000BB00F0E0EE50FE4F8083BDCF85EC80930C
:100BC000BC0010923D0280911202803230F4E0911C
:100BD0001202F0E0EE50FE4F10826091120270E0BF
:100BE000E0913702F091380282EF91E0099510927E
:100BF000120236C084E080933D021092F1011092FF
:100C0000F001E0913902F0913A0209958091F001EA
:100C1000811105C081E08093F0011092D001E09134
:100C2000F10181E08E0F8093F101F0E0E053FE4F7F
:100C300080818093BB009091F1018091F001981721
:100C400008F479CF85E88093BC000AC085EC8093D6
:100C5000BC0010923D0204C0109213020E94C80111
:100C6000FF91EF91BF91AF919F918F917F916F9184
:100C70005F914F913F912F910F900FBE0F901F905A
:100C800018951F920F920FB60F9211242F933F9336
:100C90004F935F936F937F938F939F93AF93BF9384
:100CA000EF93FF93E0914E02F0914F02309709F4D9
:100CB00051C0968DA685B785858591FF04C09C910E
:100CC000892329F447C09C91892309F043C0A38953
:100CD000B4899C918589809589238C93868997898D
:100CE0000197F1F7608D718DA685B785558538E040
:100CF00020E0CB010197F1F7822F90E09595879541
:100D0000282F4C91452309F02068315091F7868DAA
:100D100081FD209580914D0290E001968F73992777
:100D200030914C02381749F0A0914D02B0E0A05923
:100D3000BE4F2C9380934D0203C0868D8160868FB9
:100D4000828D938D0197F1F7A389B4899C91858950
:100D5000892B8C93FF91EF91BF91AF919F918F91D0
:100D60007F916F915F914F913F912F910F900FBEA7
:100D70000F901F9018953FB7F89480916003909161
:100D80006103A0916203B091630326B5A89B05C0DF
:100D90002F3F19F00196A11DB11D3FBFBA2FA92FFA
:100DA000982F8827820F911DA11DB11DBC01CD0177
:100DB00042E0660F771F881F991F4A95D1F7089563
:100DC000FC018DE091E09183808380914E029091AF
:100DD0004F02E817F90759F4A389B4899C918589D2
:100DE000809589238C9310924F0210924E020895A1
:100DF00020910F03309110038217930738F420914C
:100E00000B0330910C032115310529F41092640372
:100E100084E693E00895820F931F089542E050E026
:100E20006BE671E080E592E00C94C600CF93DF930F
:100E3000FC01138E128E118E108E178A168A8DE980
:100E400091E0958F848F9485963108F04EC02DEBFC
:100E500030E0378B268B2BE931E0318F208F2CE26D
:100E600031E0338F228F30916800983058F021E0C4
:100E70009E3008F420E091E0892F01C0880F2A9568
:100E8000EAF701C084E0832B809368009485983052
:100E900038F09E3040F0963148F020E030E008C055
:100EA0002DE630E005C02BE630E002C02CE630E055
:100EB000348B238B983030F481E001C0880F9A95F1
:100EC000EAF70EC0292F30E09E3018F4285031097F
:100ED00002C02E50310981E001C0880F2A95EAF73F
:100EE000858B848D958D0197F1F7828D938D892B5C
:100EF00021F1A0914E02B0914F02EA17FB07E9F0F1
:100F0000109751F05396CD91DC9154979881559656
:100F10008C91809589238883868D8E7F868F109211
:100F20004D0210924C02F0934F02E0934E02A389BF
:100F3000B4899C918589892B8C93DF91CF910895F9
:100F400090E0FC01EE58FF4F2491FC01E255FF4F69
:100F50003491FC01E656FF4FE491EE2309F43CC0C6
:100F6000222339F1233091F038F42130A9F02230D6
:100F700001F584B58F7D12C0273091F02830A1F0A3
:100F80002430B9F4809180008F7D03C0809180006F
:100F90008F77809380000DC084B58F7784BD09C0A2
:100FA0008091B0008F7703C08091B0008F7D8093D7
:100FB000B000F0E0EE0FFF1FE057FF4FA591B49196
:100FC0009FB7F894611104C08C913095382302C00A
:100FD000EC913E2B3C939FBF0895CF93DF9390E01D
:100FE000FC01E255FF4F2491FC01E656FF4F84912E
:100FF000882361F190E0880F991FFC01E859FF4FA9
:10100000C591D491FC01E057FF4FA591B4916111B6
:1010100009C09FB7F8948881209582238883EC913A
:101020002E230BC0623061F49FB7F8948881322F71
:10103000309583238883EC912E2B2C939FBF06C081
:101040008FB7F894E8812E2B28838FBFDF91CF9143
:1010500008950F931F93CF93DF93EC01162F042F66
:101060001B821A8288EE93E0A0E0B0E08C839D831F
:10107000AE83BF838DE091E0998388831F8A1E8AA7
:10108000198E188E1B8E1A8E1D8E1C8E6E8D6E7F85
:101090006D7F6E8F6695617081E06827842F0E9456
:1010A000A00761E0802F0E94ED07802F90E0FC01F7
:1010B000E255FF4FE491E88BFC01E656FF4FE491C7
:1010C000F0E0EE0FFF1FE057FF4F859194919A8B50
:1010D000898B60E0812F0E94ED078E8D81FD04C019
:1010E00061E0812F0E94A0071C87812F90E0FC0106
:1010F000E255FF4FE491ED87FC01E656FF4FE49186
:10110000F0E0EE0FFF1FEA57FF4F859194919F8704
:101110008E87DF91CF911F910F9108958F929F92AB
:10112000AF92BF92CF92DF92EF92FF926B017C0160
:101130000E94BB064B015C01C114D104E104F1041F
:10114000F1F00E94BB06DC01CB0188199909AA09BC
:10115000BB09883E9340A105B10570F321E0C21A96
:10116000D108E108F10888EE880E83E0981EA11CE2
:10117000B11CC114D104E104F10419F7DDCFFF90D3
:10118000EF90DF90CF90BF90AF909F908F90089599
:101190001F920F920FB60F9211242F933F938F93AC
:1011A0009F93AF93BF9380915C0390915D03A09157
:1011B0005E03B0915F0330915B0323E0230F2D3773
:1011C00020F40196A11DB11D05C026E8230F02964B
:1011D000A11DB11D20935B0380935C0390935D037D
:1011E000A0935E03B0935F038091600390916103CD
:1011F000A0916203B09163030196A11DB11D80937C
:10120000600390936103A0936203B0936303BF9163
:10121000AF919F918F913F912F910F900FBE0F90A3
:101220001F901895CF93DF9300D000D000D0CDB79A
:10123000DEB7789484B5826084BD84B5816084BD56
:1012400085B5826085BD85B5816085BD80916E0064
:10125000816080936E001092810080918100826095
:1012600080938100809181008160809381008091D2
:1012700080008160809380008091B10084608093C1
:10128000B1008091B00081608093B00080917A00BD
:10129000846080937A0080917A00826080937A00E3
:1012A00080917A00816080937A0080917A008068D2
:1012B00080937A001092C1000FB6F894A89580919F
:1012C0006000886180936000109260000FBE61E052
:1012D0008EE00E94ED0761E08FE00E94ED0761E083
:1012E0008EE00E94A00761E08FE00E94A007E091DD
:1012F0006002F091610282E08083E0915C02F091F3
:101300005D021082E0915E02F0915F028FEC8083BB
:1013100010926802E0916402F091650286E0808399
:10132000E0916202F0916302808180618083E091AC
:101330006202F0916302808188608083E0916202A2
:10134000F0916302808180688083E0916202F09175
:10135000630280818F7D80838CE393E00E94160777
:101360008DE193E00E94160761E470E08BE093E06A
:101370000E947F0384B1816284B980E285B91092B2
:1013800041021092400210923F0210923E021092CF
:101390003D0281E080933C0210923B0261E082E1D9
:1013A0000E94A00761E083E10E94A0078091B9003C
:1013B0008E7F8093B9008091B9008D7F8093B900B2
:1013C00088E48093B80085E48093BC008DE890E0C9
:1013D00090933A02809339028EE890E0909338021D
:1013E0008093370284E08093BA0087EE93E0909375
:1013F00043028093420267E173E08CE393E00E9432
:10140000B80099E288E10FB6F894A895809360003F
:101410000FBE9093600080914B02882309F46CC149
:1014200080E090E00E94F806FC0180818E3689F011
:1014300080E090E00E94F806FC018081813649F04E
:1014400080E090E00E94F806FC018081823609F07D
:10145000A0C06DE671E0CE0101960E94A604009145
:101460000F03109110030D301105F8F00031110534
:1014700010F000E110E0E0910B03F0910C03E00F9D
:10148000F11FF080108260910B0370910C03645F78
:101490007F4FCE0101960E94730480910B039091BF
:1014A0000C03FC01E00FF11FF08289819A81009703
:1014B00009F425C10E94410C70934A0260934902CD
:1014C000CE0101960E94A1046DE671E0CE01019665
:1014D0000E94A60480910F0390911003489790F00A
:1014E000E0910B03F0910C03108D108EBF01695E2B
:1014F0007F4FCE0101960E947304E0910B03F0919F
:101500000C03108F89819A81009709F4FCC00E9416
:10151000410C60930201CE0101960E94A10481E179
:1015200090E00E94F806FC01F080F09248026FE320
:1015300071E0CE0101960E94A60440910F035091E4
:10154000100360910B0370910C03CE0101960E9471
:10155000A603811104C0CE0101960E94270466E40F
:1015600071E0CE0101960E9439048C016F2D0E941A
:10157000D403811103C0C8010E942704B80180E58B
:1015800092E00E94B8000E940E07CE0101960E94D0
:10159000A1048091020181112FC0609149027091D4
:1015A0004A0280910001909101016817790709F4BE
:1015B00041C07093010160930001D72E8B01112768
:1015C000E0904602F0904702F2E0EF16F1047CF45E
:1015D0000E94E702B8018D2D90E00E942D038FEF4D
:1015E000E81AF80AF0924702E0924602E9CF109218
:1015F0004702109246021EC0109245021092440209
:1016000010920101109200010091460210914702D0
:101610000230110564F70E94E70260E070E080E0AC
:1016200090E00E942D030F5F1F4F1093470200931D
:101630004602EACF80E090E00E94F806FC0180813B
:101640008E3689F080E090E00E94F806FC018081EF
:10165000813649F080E090E00E94F806FC0180812C
:10166000823609F052C06DE671E087E193E00E9496
:1016700073041A8219821C821B821E821D826BE0F7
:1016800073E0CE0101960E948A046CE671E0CE01FF
:1016900001960E943904BC0187E193E00E948A040C
:1016A000CE0101960E94A10467E173E08CE393E010
:1016B0000E94B80080914802853609F04AC061E076
:1016C0008FE00E94A00761E070E080E090E00E945F
:1016D0008E0860E08EE00E94A00761E070E080E08C
:1016E00090E00E948E0810924B026DE671E08BE054
:1016F00093E00E947304A8950E9421048CCE60E0C0
:1017000070E0CB01D9CE60E004CF6DE671E081E1FD
:1017100093E00E9473041A8219821C821B821E822B
:101720001D8267E173E0CE0101960E948A046CE697
:1017300071E0CE0101960E943904BC0181E193E081
:101740000E948A04CE0101960E94A10461E173E027
:10175000ADCF833611F460E001C061E08FE00E94FC
:10176000A00761E070E080E090E00E948E0861E0F8
:10177000B1CF89EF92E00E94A1048FEF92E00E9426
:10178000A10485E093E00E94A1048BE093E00E9415
:10179000A10481E193E00E94A10487E193E00E940B
:1017A000A1048DE193E00E94E0068CE393E00C94A9
:1017B000E006E0E5F2E01382128288EE93E0A0E01A
:1017C000B0E084839583A683B7832FE131E0318332
:1017D000208325EC30E03587248724EC30E0378700
:1017E000268720EC30E0318B208B21EC30E0338BEE
:1017F000228B22EC30E0358B248B26EC30E0378BCB
:10180000268B118E128E138E148EEDEEF2E0138263
:10181000128284839583A683B78381E391E09183C9
:10182000808343E062E08CE393E00E94290845E076
:1018300064E08DE193E00E9429086AE471E087E1A9
:1018400093E00E94A6046DE671E081E193E00E94BE
:10185000A6046DE671E08BE093E00E94A6046DE6BD
:1018600071E085E093E00E94A6046DE671E08FEFE1
:1018700092E00E94A6046DE671E089EF92E00C947C
:10188000A6041F93FC0199278827BC01E8941191B5
:101890001032E9F3193010F01E30C8F31B3251F04A
:1018A0001D3249F4689406C00E94680C610F711DD6
:1018B000811D911D119110531A30B0F33EF4909593
:1018C0008095709561957F4F8F4F9F4F1F91089521
:1018D000592F482F372F262F660F771F881F991FE4
:1018E000660F771F881F991F620F731F841F951F34
:1018F000660F771F881F991F08952F923F924F926E
:101900005F926F927F928F929F92AF92BF92CF928F
:10191000DF92EF92FF920F931F93CF93DF93CDB798
:10192000DEB7CA1BDB0B0FB6F894DEBF0FBECDBF10
:1019300009942A88398848885F846E847D848C84E1
:101940009B84AA84B984C884DF80EE80FD800C81EA
:101950001B81AA81B981CE0FD11D0FB6F894DEBFCD
:101960000FBECDBFED01089597FB072E16F400942E
:1019700007D077FD09D00E94C80C07FC05D03EF4C3
:10198000909581959F4F0895709561957F4F08952B
:10199000AA1BBB1B51E107C0AA1FBB1FA617B70795
:1019A00010F0A61BB70B881F991F5A95A9F78095B1
:1019B0009095BC01CD010895EE0FFF1F0590F491A5
:1019C000E02D09940F931F93CF93DF9382309105FD
:1019D00010F482E090E0E0916703F091680320E06A
:1019E00030E0A0E0B0E0309719F1408151810281F0
:1019F000138148175907C8F08417950769F41097A1
:101A000031F012960C93129713961C9327C00093F3
:101A100067031093680322C02115310519F042179E
:101A2000530718F49A01BD01EF01DF01F801DBCF84
:101A300021153105F9F0281B390B2430310580F4CC
:101A40008A819B816115710521F0FB01938382835B
:101A500004C09093680380936703FE01329644C0EC
:101A6000FE01E20FF31F81939193225031093983D4
:101A700028833AC02091650330916603232B41F4FB
:101A80002091050130910601309366032093650390
:101A900020910301309104012115310541F42DB746
:101AA0003EB74091070150910801241B350BE0918E
:101AB0006503F0916603E217F307A0F42E1B3F0BBA
:101AC0002817390778F0AC014E5F5F4F24173507B0
:101AD00048F04E0F5F1F5093660340936503819358
:101AE000919302C0E0E0F0E0CF01DF91CF911F9130
:101AF0000F910895CF93DF93009709F481C0FC0103
:101B0000329713821282A0916703B09168031097F5
:101B100081F420813181820F931F209165033091E0
:101B200066032817390751F5F0936603E0936503C0
:101B300067C0ED0120E030E0CE17DF0740F44A81B6
:101B40005B819E0141155105F1F0EA01F5CFD38388
:101B5000C28340815181840F951FC817D90759F45A
:101B600088819981840F951F0296918380838A8151
:101B70009B81938382832115310529F4F0936803B7
:101B8000E09367033DC0E901FB83EA8349915991E2
:101B9000C40FD51FEC17FD0761F480819181840F7C
:101BA000951F0296E90199838883828193819B83A3
:101BB0008A83E0E0F0E012968D919C911397009754
:101BC00019F0FD01DC01F7CF8D919C9111979D01DA
:101BD0002E5F3F4F820F931F209165033091660364
:101BE0002817390769F4309729F410926803109286
:101BF000670302C013821282B0936603A093650349
:101C0000DF91CF910895A0E0B0E0E9E0FEE00C9410
:101C1000810CEC01009721F4CB010E94E20CB4C0CE
:101C2000FC01E60FF71F9C0122503109E217F30770
:101C300008F4A8C0D9010D911C9111970617170738
:101C4000B0F00530110508F49BC0C8010497861751
:101C5000970708F495C002501109061B170B019352
:101C600011936D937C93CF010E947A0D89C05B0123
:101C7000A01AB10A4C01800E911EA0916703B09189
:101C80006803612C712CE12CF12C109709F446C0EB
:101C90008D919C911197A815B905B1F56C0142E0A1
:101CA000C40ED11CCA14DB0478F14C018A189B08BD
:101CB000640142E0C40ED11C1296BC901297139698
:101CC000AC91B5E0CB16D10440F0B282A3839182EF
:101CD0008082D9016D937C9309C00E5F1F4F800FE6
:101CE000911FF90191838083EB2DFA2FE114F10408
:101CF00031F0D7011396FC93EE93129741C0F09305
:101D00006803E09367033CC06816790608F43C0159
:101D10007D0112960D90BC91A02DB7CF80916503E7
:101D20009091660388169906E1F466167706C8F462
:101D30008091030190910401009741F48DB79EB703
:101D40004091070150910801841B950BE817F90792
:101D5000C8F4F0936603E0936503F901718360832F
:101D60000FC0CB010E94E20C7C01009759F0A80142
:101D7000BE010E94CE0ECE010E947A0DC70104C0A2
:101D8000CE0102C080E090E0CDB7DEB7EEE00C946B
:101D90009D0C81E090E0F8940C94DE0EFB01DC01D8
:101DA00002C001900D9241505040D8F70895FB01B8
:101DB000DC0101900D920020E1F7089510E0C2E6E9
:101DC000D0E004C0FE010E94DC0C2196C336D1078E
:061DD000C9F7F894FFCFF3
:101DD600730001000069038000000000005A02C67B
:101DE60000E402FA01AA02C20242020000000059FF
:101DF60001C600F000A6012101FF0013010000004A
:101E06000031022602E402FA011E020A02FB016503
:101E160063686F3A2000743A2000613030306630D3
:101E260031323031306D30373030746E30303072A0
:0E1E36003131313131303030300A000D0A00C8
:00000001FF
