:100000000C9436000C945E000C945E000C945E0020
:100010000C945E000C945E000C945E000C945E00E8
:100020000C945E000C945E000C945E000C945E00D8
:100030000C945E000C9437040C945E000C945E00EB
:100040000C9495030C945E000C9405040C94DF034F
:100050000C945E000C945E000C945E000C945E00A8
:100060000C945E000C945E005E046D0711241FBEAC
:10007000CFEFD8E0DEBFCDBF22E0AAE4B1E001C0FF
:100080001D92A632B207E1F711E0A0E0B1E0EEE088
:10009000F4E102C005900D92AA34B107D9F710E03F
:1000A000C5E3D0E004C02197FE010E94F807C433E5
:1000B000D107C9F70E9490040C94FA090C9400002F
:1000C000FC01808191818617970731F485B1482B17
:1000D00045B91182108206C0C29721F485B14095BE
:1000E000482345B980819181019691838083089549
:1000F00020912002309121028217930738F4209139
:100100001C0230911D022115310529F410927E0147
:100110008EE791E00895820F931F08955B9A609196
:100120005E0170915F0141E08CE591E00E9460000A
:10013000609158017091590142E086E591E00E947A
:100140006000609170017091710144E08EE691E071
:100150000E94600060916A0170916B0148E088E63E
:1001600091E00E946000609164017091650140E13E
:1001700082E691E00E9460005B980895CF92DF9242
:10018000EF92FF920F931F93CF93DF936C017A014D
:100190008B01C0E0D0E0CE15DF0581F0D8016D9174
:1001A0008D01D601ED91FC910190F081E02DC60109
:1001B0000995892B11F02196EECF7E01C701DF91C1
:1001C000CF911F910F91FF90EF90DF90CF90089506
:1001D00042E050E06EE171E08FE791E00C94BE00E8
:1001E000089580E090E00895FC01538D448D252F03
:1001F00030E0842F90E0821B930B541710F0CF96C1
:10020000089501970895FC01918D828D981761F0F2
:10021000828DDF01A80FB11D5D968C91928D9F5F3D
:100220009F73928F90E008958FEF9FEF0895FC01E8
:10023000918D828D981731F0828DE80FF11D858D9B
:1002400090E008958FEF9FEF0895FC01918D228D2E
:10025000892F90E0805C9F4F821B91098F739927B3
:1002600008958FE791E00E94250121E0892B09F490
:1002700020E0822F0895FC01848DDF01A80FB11DBD
:10028000A35ABF4F2C91848D90E001968F739927CC
:10029000848FA689B7892C93A089B1898C918370AA
:1002A00080648C93938D848D981306C00288F389A3
:1002B000E02D80818F7D80830895EF92FF920F93D0
:1002C0001F93CF93DF93EC0181E0888F9B8D8C8D02
:1002D000981305C0E889F989808185FD26C0F62E2E
:1002E0000B8D10E00F5F1F4F0F731127E02E8C8DC9
:1002F000E8120CC00FB607FCFACFE889F9898081B3
:1003000085FFF5CFCE010E943B01F1CF8B8DFE0121
:10031000E80FF11DE35AFF4FF0829FB7F8940B8F5F
:10032000EA89FB89808180620AC09FB7F894EE89D0
:10033000FF896083E889F989808183708064808384
:100340009FBF81E090E0DF91CF911F910F91FF90CF
:10035000EF900895CF93DF93EC01888D8823C9F047
:10036000EA89FB89808185FD05C0A889B9898C91BE
:1003700086FD0FC00FB607FCF5CF808185FFF2CF59
:10038000A889B9898C9185FFEDCFCE010E943B01F0
:10039000E7CFDF91CF910895CF92DF92EF92FF9256
:1003A0000F931F93CF93DF93F701D601211107C05D
:1003B000EA019881992319F09081892B03C09081DB
:1003C000809589238083F8018081882319F08C919E
:1003D000682B03C08C91609568236C93DF91CF915B
:1003E0001F910F91FF90EF90DF90CF900895FB0148
:1003F000DA011D921C92811103C0118210820895AE
:10040000682F70E088E99AE30E94E4076536710579
:1004100028F484E690E0918380830895718360835B
:1004200068397A4309F4089508950E94E509FC01AA
:1004300080819181009711F00C94710760E070E069
:10044000CB0108950F931F93CF93DF93EC01888125
:100450009981009729F02A813B812617370788F474
:100460008B016F5F7F4F0E941F09009761F0998396
:1004700088831B830A832C813D81232B11F4FC018B
:10048000108281E001C080E0DF91CF911F910F9138
:100490000895EF92FF920F931F93CF93DF9361150F
:1004A000710511F480E01CC041155105C1F07B01BC
:1004B000EC018C819D818A01080F191FB801CE01C2
:1004C0000E942202882371F3288139818C819D81C9
:1004D000B701820F931F0E94F3091D830C8381E0F3
:1004E000DF91CF911F910F91FF90EF9008950F939F
:1004F0001F93CF93DF9300D0CDB7DEB701E08FE736
:1005000091E00E942501892BA9F08FE791E00E94DC
:100510000301182F89831A8241E050E0BE016F5F0A
:100520007F4F8CE192E00E9449021A3041F700931C
:100530007401E5CF0F900F90DF91CF911F910F9134
:1005400008950E94310181110C9477020895CF9390
:10055000DF93EC0188819981009711F00E94960841
:10056000198218821D821C821B821A82DF91CF9110
:100570000895CF93DF93EC016115710561F0FB01E4
:1005800001900020E9F73197AF01461B570B0E94FD
:100590004902811103C0CE010E94A702CE01DF9162
:1005A000CF910895CF93DF93EC01FB0144815581F6
:1005B000608171810E944902811103C0CE010E94B5
:1005C000A702CE01DF91CF910895EF92FF920F9392
:1005D0001F93CF93DF93EC01198218821B821A823A
:1005E0001D821C826115710521F18B01FB010190B7
:1005F0000020E9F731977F01E61AF70AB7010E9458
:100600002202811109C0CE01DF91CF911F910F917C
:10061000FF90EF900C94A702FD82EC82B8018881D4
:100620009981DF91CF911F910F91FF90EF900C94E2
:10063000F309DF91CF911F910F91FF90EF900895F3
:10064000EF92FF920F931F93CF93DF938C017B0167
:100650006115710569F0FB0101900020E9F7319700
:10066000EF01C61BD70BBE010E942202811104C0FC
:10067000C8010E94A70208C0F801D583C483B7014E
:10068000808191810E94F309C801DF91CF911F9170
:100690000F91FF90EF900895CF92DF92EF92FF922B
:1006A0000F931F93CF93DF936C018B017A01461751
:1006B000570720F4812F8A01E62EF82E60E271E0C0
:1006C000C6010E94E502C0912002D09121020C17C0
:1006D0001D07E0F4EC16FD0608F4E701E0911C02AA
:1006E000F0911D02EC0FFD1FF080108260911C0242
:1006F00070911D02600F711FC6010E94200380913E
:100700001C0290911D02C80FD91FF882C601DF910B
:10071000CF911F910F91FF90EF90DF90CF900895B0
:10072000FC01808191810C9496081F920F920FB664
:100730000F9211242F933F938F939F93AF93BF9367
:1007400080917A0190917B01A0917C01B0917D0113
:100750003091790123E0230F2D3720F40196A11D5C
:10076000B11D05C026E8230F0296A11DB11D2093DF
:10077000790180937A0190937B01A0937C01B093DF
:100780007D018091750190917601A0917701B091E2
:1007900078010196A11DB11D80937501909376019A
:1007A000A0937701B0937801BF91AF919F918F9102
:1007B0003F912F910F900FBE0F901F9018951F9291
:1007C0000F920FB60F9211242F933F934F935F9385
:1007D0006F937F938F939F93AF93BF93EF93FF9309
:1007E0008FE791E00E943B01FF91EF91BF91AF91A4
:1007F0009F918F917F916F915F914F913F912F9139
:100800000F900FBE0F901F9018951F920F920FB66A
:100810000F9211242F938F939F93EF93FF93E09167
:100820008F01F09190018081E0919501F091960106
:1008300082FD12C09081809198018F5F8F7320910B
:100840009901821751F0E0919801F0E0E158FE4FD4
:10085000958F8093980101C08081FF91EF919F91C6
:100860008F912F910F900FBE0F901F9018951F9290
:100870000F920FB60F9211242F933F934F935F93D4
:100880006F937F938F939F93AF93BF93EF93FF9358
:10089000E0914E01F0914F010995FF91EF91BF91C9
:1008A000AF919F918F917F916F915F914F913F9108
:1008B0002F910F900FBE0F901F901895EFE7F1E06A
:1008C0001382128288EE93E0A0E0B0E084839583E7
:1008D000A683B78380E191E09183808385EC90E0EB
:1008E0009587848784EC90E09787868780EC90E0FA
:1008F000918B808B81EC90E0938B828B82EC90E0EB
:10090000958B848B86EC90E0978B868B118E128E64
:10091000138E148E60E271E08CE192E00C94E5029B
:10092000CF93DF93CDB7DEB768970FB6F894DEBFED
:100930000FBECDBF789484B5826084BD84B58160DC
:1009400084BD85B5826085BD85B5816085BD80919A
:100950006E00816080936E00109281008091810012
:10096000826080938100809181008160809381000A
:10097000809180008160809380008091B1008460CC
:100980008093B1008091B00081608093B00080912D
:100990007A00846080937A0080917A0082608093EC
:1009A0007A0080917A00816080937A0080917A0049
:1009B000806880937A001092C1000FB6F894A895D1
:1009C00080916000886180936000109260000FBE8B
:1009D000E0918F01F091900182E08083E0918B01A2
:1009E000F0918C011082E0918D01F0918E018FECDD
:1009F000808310929701E0919301F091940186E039
:100A00008083E0919101F0919201808180618083E7
:100A1000E0919101F0919201808188608083E09162
:100A20009101F0919201808180688083E091910131
:100A3000F091920180818F7D808384B18F6384B92E
:100A400087B18E6387B98AB188638AB910928000B2
:100A500080E18093810021E020934C018FB7809347
:100A60004D01F89480EA90E090934B0180934A0105
:100A7000909387008093860080914D018FBF809175
:100A80008100887F809381009091810080914C014A
:100A9000982B909381004EE850E050934F01409383
:100AA0004E0120936F0090918100892B80938100EB
:100AB00061E470E08CE192E00E94220299E288E118
:100AC0000FB6F894A895809360000FBE90936000D5
:100AD00080917401882309F4C2C180E090E00E94F3
:100AE0007800FC018081813651F48BE090E00E9417
:100AF0007800FC0180818D3609F0B4C112C080E01D
:100B000090E00E947800FC018081823671F380E0E1
:100B100090E00E947800FC0180818E3609F0A2C12D
:100B2000E4CF4DE150E06CE170E0CE0143960E94CD
:100B30004C0349E150E068E170E0CE010D960E945F
:100B40004C0344E050E060E070E0CE0107960E9464
:100B50004C036FE271E0CE0101960E94E502BE01F6
:100B6000695F7F4FCE0101960E94D20268E471E076
:100B70000E94B902BE01635F7F4F0E94D20268E407
:100B800071E00E94B902BE016D5E7F4F0E94D202E9
:100B90006EE371E00E94B9026CE172E00E94D20241
:100BA000FC0144815581608171818FE791E00E9451
:100BB000BE000E94E800CE0101960E949003CE0183
:100BC00007960E949003CE010D960E949003CE01DD
:100BD00043960E94900348E050E065E070E0CE014B
:100BE00001960E944C03CE0101960E941702609369
:100BF0007301CE0101960E94900386E190E00E946D
:100C00007800FC0180818053809355018BE190E056
:100C10000E947800FC0180818053809305014BE0A5
:100C200050E068E070E0CE0101960E944C03CE01D6
:100C300001960E94170260936D01CE0101960E94F9
:100C4000900389E190E00E947800FC01808180534C
:100C5000809354018EE190E00E947800FC01808135
:100C600080538093040145E150E062E170E0CE01E1
:100C700001960E944C03CE0101960E9417026093D8
:100C80006701CE0101960E9490038AE190E00E94E4
:100C90007800FC0180818053809353018DE190E0C6
:100CA0000E947800FC01808180538093030181E1E0
:100CB00090E00E94780044E050E061E070E0CE01F6
:100CC00001960E944C03CE0101960E941702609388
:100CD0005201CE0101960E94900380E090E00E94B4
:100CE0007800FC0100810093510188E190E00E94AE
:100CF0007800FC0110811053109350018CE190E0BA
:100D00000E947800FC0180818053809301011111C1
:100D1000DCC0013609F0CAC08091520180936101A4
:100D200010925B0181E0809300011092020180919A
:100D3000730190917201891751F04EE651E060E71E
:100D400071E00E94F701809173018093720180919C
:100D50006D0190916C01891751F048E651E06AE607
:100D600071E00E94F70180916D0180936C01809188
:100D7000670190916601891751F042E651E064E6FF
:100D800071E00E94F7018091670180936601809174
:100D9000610190916001891751F04CE551E06EE5D9
:100DA00071E00E94F7018091610180936001809160
:100DB0005B0190915A01891751F046E551E068E5D1
:100DC00071E00E94F70180915B0180935A0188E2F3
:100DD000C82ED12C98E2E92EF12C05E011E02091EB
:100DE000550143E751E068E084E00E94CC0104E053
:100DF00011E0209154014DE651E061E080E10E9454
:100E0000CC0125E2C22ED12C03E011E02091530148
:100E100047E651E060E280E20E94CC0138E2C32E56
:100E2000D12C4BE2E42EF12C01E011E020910201E3
:100E300041E651E062E080E10E94CC012091000196
:100E40004BE551E062E080E20E94CC011092740117
:100E500060E271E08CE192E00E942003A8950E947C
:100E6000A10236CE61E271E0CE0101960E94E50258
:100E70006CE172E0CE0101960E94D202FC01448135
:100E80005581608171818FE791E00E94BE000E94D0
:100E9000E800CE0101960E9490031092740160E276
:100EA00071E08CE192E00E942003D9CF023609F074
:100EB0003ECF109261018091520180935B0181E0ED
:100EC000809302011092000132CF113009F02FCF30
:100ED00010930201109300012ACF8CE192E00C9450
:100EE00090031F93FC0199278827BC01E894119176
:100EF0001032E9F3193010F01E30C8F31B3251F0F4
:100F00001D3249F4689406C00E949807610F711D54
:100F1000811D911D119110531A30B0F33EF490953C
:100F20008095709561957F4F8F4F9F4F1F910895CA
:100F3000592F482F372F262F660F771F881F991F8D
:100F4000660F771F881F991F620F731F841F951FDD
:100F5000660F771F881F991F08952F923F924F9217
:100F60005F926F927F928F929F92AF92BF92CF9239
:100F7000DF92EF92FF920F931F93CF93DF93CDB742
:100F8000DEB7CA1BDB0B0FB6F894DEBF0FBECDBFBA
:100F900009942A88398848885F846E847D848C848B
:100FA0009B84AA84B984C884DF80EE80FD800C8194
:100FB0001B81AA81B981CE0FD11D0FB6F894DEBF77
:100FC0000FBECDBFED010895AA1BBB1B51E107C0A9
:100FD000AA1FBB1FA617B70710F0A61BB70B881FC9
:100FE000991F5A95A9F780959095BC01CD01089558
:100FF000EE0FFF1F0590F491E02D09940F931F93BE
:10100000CF93DF938230910510F482E090E0E0917D
:101010002402F091250220E030E0A0E0B0E030971B
:1010200019F1408151810281138148175907C8F095
:101030008417950769F4109731F012960C93129764
:1010400013961C9327C0009324021093250222C0FC
:101050002115310519F04217530718F49A01BD0103
:10106000EF01DF01F801DBCF21153105F9F0281B75
:10107000390B2430310580F48A819B81611571051B
:1010800021F0FB019383828304C090932502809317
:101090002402FE01329644C0FE01E20FF31F819349
:1010A000919322503109398328833AC0209122023A
:1010B00030912302232B41F4209108013091090142
:1010C00030932302209322022091060130910701E0
:1010D0002115310541F42DB73EB740910A015091D9
:1010E0000B01241B350BE0912202F0912302E21741
:1010F000F307A0F42E1B3F0B2817390778F0AC013B
:101100004E5F5F4F2417350748F04E0F5F1F509317
:101110002302409322028193919302C0E0E0F0E029
:10112000CF01DF91CF911F910F910895CF93DF935E
:10113000009709F481C0FC01329713821282A091BA
:101140002402B0912502109781F420813181820F11
:10115000931F20912202309123022817390751F55D
:10116000F0932302E093220267C0ED0120E030E01B
:10117000CE17DF0740F44A815B819E01411551057E
:10118000F1F0EA01F5CFD383C28340815181840F0E
:10119000951FC817D90759F488819981840F951F25
:1011A0000296918380838A819B8193838283211518
:1011B000310529F4F0932502E09324023DC0E901B2
:1011C000FB83EA8349915991C40FD51FEC17FD07A2
:1011D00061F480819181840F951F0296E9019983C2
:1011E0008883828193819B838A83E0E0F0E012967A
:1011F0008D919C911397009719F0FD01DC01F7CFB9
:101200008D919C9111979D012E5F3F4F820F931FEF
:1012100020912202309123022817390769F4309770
:1012200029F4109225021092240202C01382128225
:10123000B0932302A0932202DF91CF910895A0E002
:10124000B0E0E5E2F9E00C94B107EC01009721F47D
:10125000CB010E94FE07B4C0FC01E60FF71F9C0102
:1012600022503109E217F30708F4A8C0D9010D9103
:101270001C91119706171707B0F00530110508F4F7
:101280009BC0C80104978617970708F495C00250C1
:101290001109061B170B019311936D937C93CF01DA
:1012A0000E94960889C05B01A01AB10A4C01800E09
:1012B000911EA0912402B0912502612C712CE12C89
:1012C000F12C109709F446C08D919C911197A815A7
:1012D000B905B1F56C0142E0C40ED11CCA14DB049F
:1012E00078F14C018A189B08640142E0C40ED11CBD
:1012F0001296BC9012971396AC91B5E0CB16D10420
:1013000040F0B282A38391828082D9016D937C9355
:1013100009C00E5F1F4F800F911FF90191838083D9
:10132000EB2DFA2FE114F10431F0D7011396FC9361
:10133000EE93129741C0F0932502E09324023CC043
:101340006816790608F43C017D0112960D90BC9157
:10135000A02DB7CF80912202909123028816990682
:10136000E1F466167706C8F48091060190910701B2
:10137000009741F48DB79EB740910A0150910B013F
:10138000841B950BE817F907C8F4F0932302E09348
:101390002202F901718360830FC0CB010E94FE0716
:1013A0007C01009759F0A801BE010E94EA09CE0114
:1013B0000E949608C70104C0CE0102C080E090E000
:1013C000CDB7DEB7EEE00C94CD0781E090E0F89465
:1013D0000C94FA09FB01DC0102C001900D9241500E
:1013E0005040D8F70895FB01DC0101900D920020D8
:1013F000E1F7089510E0C5E3D0E004C0FE010E94CB
:0E140000F8072196C633D107C9F7F894FFCF3D
:10140E000101010101010000260280000000000020
:10141E005D01BE00F400AA012501030117010D0AAA
:10142E0000424144206D6573736167653A20004741
:10143E006F6F64206D6573736167653A20002020BD
:0A144E006D6573736167653A200055
:00000001FF
