:100000000C94F9000C9421010C9421010C94210111
:100010000C9421010C9421010C9421010C942101D8
:100020000C9421010C9421010C9421010C942101C8
:100030000C9421010C9421010C9421010C942101B8
:100040000C948F090C9421010C9410050C94EA0473
:100050000C9421010C9421010C9421010C94210198
:100060000C9472050C9421014E414E494E4954594D
:10007000494E46CDCCCC3D0AD7233C17B7D1387773
:10008000CC2B329595E6241FB14F0A000020410089
:1000900000C84200401C4620BCBE4CCA1B0E5AAED3
:1000A000C59D7400407A10F35A00A0724E180900E2
:1000B00010A5D4E80000E87648170000E40B5402CD
:1000C0000000CA9A3B000000E1F505000080969808
:1000D00000000040420F000000A086010000001058
:1000E0002700000000E8030000000064000000009A
:1000F000000A00000000000100000000002C76D87B
:1001000088DC674F0823DFC1DFAE59E1B1B796E560
:10011000E3E453C63AE651997696E8E6C28426EBC4
:10012000898C9B62ED407C6FFCEFBC9C9F40F2BAD7
:10013000A56FA5F490055A2AF75C936B6CF9676D6F
:10014000C11BFCE0E40D47FEF520E6B500D0ED90C4
:100150002E0300943577050080841E080000204E91
:100160000A000000C80C333333330F986E1283112A
:1001700041EF8D2114893BE65516CFFEE6DB18D101
:10018000844B381BF77C1D901DA4BBE424203284D3
:10019000725E228100C9F124ECA1E53D2700000038
:1001A0000800020100000304070000000000000036
:1001B0000000000000250028002B000000000024A3
:1001C0000027002A000404040404040404020202B8
:1001D0000202020303030303030102040810204088
:1001E00080010204081020010204081020006C1392
:1001F000541311241FBECFEFD8E0DEBFCDBF24E0E3
:10020000ACE3B2E001C01D92A138B207E1F712E001
:10021000A0E0B1E0E0E2F9E302C005900D92AC335A
:10022000B107D9F710E0C8EFD0E004C02197FE0174
:100230000E94D019C73FD107C9F70E94D9090C9471
:10024000831C0C9400000895CF92DF92EF92FF92EE
:100250000F931F93CF93DF936C017A018B01C0E062
:10026000D0E0CE15DF0581F0D8016D918D01D6016A
:10027000ED91FC910190F081E02DC6010995892B4B
:1002800011F02196EECF7E01C701DF91CF911F9132
:100290000F91FF90EF90DF90CF900895FC01538D68
:1002A000448D252F30E0842F90E0821B930B541750
:1002B00010F0CF96089501970895FC01918D828DDD
:1002C000981761F0828DDF01A80FB11D5D968C91AA
:1002D000928D9F5F9F73928F90E008958FEF9FEFB5
:1002E0000895FC01918D828D981731F0828DE80F71
:1002F000F11D858D90E008958FEF9FEF0895FC012B
:10030000918D228D892F90E0805C9F4F821B9109F7
:100310008F739927089585E893E00E947F0121E07B
:10032000892B09F420E0822F0895FC01848DDF01E0
:10033000A80FB11DA35ABF4F2C91848D90E0019658
:100340008F739927848FA689B7892C93A089B18947
:100350008C91837080648C93938D848D981306C0E8
:100360000288F389E02D80818F7D80830895EF924C
:10037000FF920F931F93CF93DF93EC0181E0888F5F
:100380009B8D8C8D981305C0E889F989808185FD46
:1003900026C0F62E0B8D10E00F5F1F4F0F73112735
:1003A000E02E8C8DE8120CC00FB607FCFACFE8895E
:1003B000F989808185FFF5CFCE010E949501F1CFAB
:1003C0008B8DFE01E80FF11DE35AFF4FF0829FB7BE
:1003D000F8940B8FEA89FB89808180620AC09FB7FD
:1003E000F894EE89FF896083E889F98980818370B8
:1003F000806480839FBF81E090E0DF91CF911F9167
:100400000F91FF90EF900895CF93DF93EC01888DCB
:100410008823C9F0EA89FB89808185FD05C0A88908
:10042000B9898C9186FD0FC00FB607FCF5CF80818E
:1004300085FFF2CFA889B9898C9185FFEDCFCE01D8
:100440000E949501E7CFDF91CF91089585ED8093CC
:10045000BC008091BC0084FDFCCF10926003089525
:100460004091F102262F30E0240F311D2132310559
:10047000DCF4209160032430C9F4FC0180E090E0BA
:10048000861758F43091F1022191DC01AF52BD4F33
:10049000A30FB11D2C930196F3CF8091F102680F49
:1004A0006093F10280E0089581E0089582E008956C
:1004B000089508950895E091190380911803E817AD
:1004C00030F4F0E0E65EFC4F808190E008958FEF1D
:1004D0009FEF08959091190380911803981750F495
:1004E000E92FF0E0E65EFC4F208130E09F5F9093C3
:1004F000190302C02FEF3FEFC9010895809118033F
:1005000090E020911903821B91090895CF92DF9208
:10051000EF92FF920F931F93CF93DF937C01CB0158
:100520008A0120916103222389F0EB016B01C40E43
:10053000D51ECC15DD0569F06991D701ED91FC91CF
:100540000190F081E02DC7010995F3CF642F0E943F
:100550003002C801DF91CF911F910F91FF90EF9072
:10056000DF90CF900895CF93DF931F92CDB7DEB782
:100570006983209161032223D1F0209184032032EA
:1005800040F021E030E0FC013383228380E090E002
:1005900015C080916203E82FF0E0ED59FC4F99817E
:1005A00090838F5F809362038093840305C061E032
:1005B000CE0101960E94300281E090E00F90DF9121
:1005C000CF91089580E090E008950E94651CCF933C
:1005D000DF93EC0188819981009711F00E94161B2E
:1005E000198218821D821C821B821A82DF91CF9190
:1005F0000895CF93C62F81E0809361038EE38093AB
:100600008303109262031092840360E482E294E018
:100610000E94B3026C2F82E294E00E94B3020E9417
:10062000B60781E090E0CF910895FC01808191812F
:10063000009711F00C94421460E070E0CB01089533
:100640000F931F93CF93DF938C01EB01FC0180810B
:100650009181009739F06881798161157105A1F464
:100660000E94161B88819981F801918380838A8179
:100670009B81938382838C819D819583848319825E
:1006800018821B821A820FC0F801428153812C818B
:100690003D814217530720F30E947C1C8C819D8171
:1006A000F801958384831D821C82DF91CF911F9175
:1006B0000F9108950F931F93CF93DF93EC018881DF
:1006C0009981009729F02A813B812617370788F402
:1006D0008B016F5F7F4F0E949F1B009761F0998392
:1006E00088831B830A832C813D81232B11F4FC0119
:1006F000108281E001C080E0DF91CF911F910F91C6
:100700000895EF92FF920F931F93CF93DF9361159C
:10071000710511F480E01CC041155105C1F07B0149
:10072000EC018C819D818A01080F191FB801CE014F
:100730000E945A03882371F3288139818C819D811D
:10074000B701820F931F0E947C1C1D830C8381E0E4
:10075000DF91CF911F910F91FF90EF900895EF924D
:10076000FF920F931F93CF93DF9300D000D0CDB7AC
:10077000DEB77C01862F4AE08E010F5F1F4FB80164
:1007800090E00E946D14F80101900020E9F7319784
:10079000AF01401B510BB801C7010E9481038111B9
:1007A00003C0C7010E94E702C7010F900F900F908E
:1007B0000F90DF91CF911F910F91FF90EF900895CF
:1007C000CF93DF93EC016115710561F0FB0101909E
:1007D0000020E9F73197AF01461B570B0E948103B8
:1007E000811103C0CE010E94E702CE01DF91CF91BB
:1007F0000895CF93DF93EC01FB0144815581608123
:1008000071810E948103811103C0CE010E94E70221
:10081000CE01DF91CF9108950F931F93CF93DF9374
:1008200000D0CDB7DEB701E085E893E00E947F01FC
:10083000892BA9F085E893E00E945D01182F898338
:100840001A8241E050E0BE016F5F7F4F8CE594E07B
:100850000E9481031A3041F700933C02E5CF0F90CC
:100860000F90DF91CF911F910F9108950E948B01FE
:1008700081110C940C040895EF92FF920F931F9333
:10088000CF93DF93EC017B018A01BA010E945A03E6
:10089000811104C0CE010E94E70207C01D830C83B2
:1008A000B701888199810E947C1CCE01DF91CF9194
:1008B0001F910F91FF90EF900895CF93DF93EC017C
:1008C0006115710559F0FB0101900020E9F731979E
:1008D000AF01461B570B0E943C0402C00E94E70276
:1008E000CE01DF91CF910895CF93DF93EC01FB010F
:1008F0008617970761F0608171816115710529F094
:10090000448155810E943C0402C00E94E702CE014E
:10091000DF91CF910895FC01808191810C94161B89
:10092000FC011182108213821282158214826115D9
:10093000710551F0FB0101900020E9F73197AF01FB
:10094000461B570B0C943C040895BF92CF92DF9244
:10095000EF92FF920F931F93CF93DF937C016B0174
:100960008A01E9012417350720F4812F8901C42F5A
:10097000D82F6FE771E0C7010E949004D60114964A
:100980008D919C91159708171907C8F48C179D072E
:1009900008F4EC01D601ED91FC911197EC0FFD1FCD
:1009A000B08010826D917C91600F711FC7010E9411
:1009B0005D04D601ED91FC91EC0FFD1FB082C701E3
:1009C000DF91CF911F910F91FF90EF90DF90CF902B
:1009D000BF9008951F920F920FB60F9211242F937C
:1009E0003F934F935F936F937F938F939F93AF93B7
:1009F000BF93EF93FF9385E893E00E949501FF91E9
:100A0000EF91BF91AF919F918F917F916F915F9186
:100A10004F913F912F910F900FBE0F901F901895FF
:100A20001F920F920FB60F9211242F938F939F93C3
:100A3000EF93FF93E0919503F09196038081E0910D
:100A40009B03F0919C0382FD12C0908180919E03D4
:100A50008F5F8F7320919F03821751F0E0919E0367
:100A6000F0E0EB57FC4F958F80939E0301C080818F
:100A7000FF91EF919F918F912F910F900FBE0F904B
:100A80001F9018951F93CF93DF93182F81E08093C9
:100A9000610310938303109262031092840360E059
:100AA00082E294E00E94B3020E94B60741E062E055
:100AB000812F0E943108109219038093180382E25B
:100AC00094E00E946A02182F82E294E00E946A0277
:100AD000D12F20E0C22F9E01282BC901DF91CF9199
:100AE0001F9108951F920F920FB60F9211242F930A
:100AF0003F934F935F936F937F938F939F93AF93A6
:100B0000BF93EF93FF938091B900887F803609F4FB
:100B10009CC068F5883209F45BC090F4803109F418
:100B200054C038F4882309F4F6C0883009F44DC065
:100B3000F6C0883109F44CC0803209F45DC0EFC0C2
:100B4000803409F468C048F4803309F455C0883310
:100B500009F0E5C080935E03D8C0803509F44FC02A
:100B6000883509F45DC0883409F0D9C0D6C0883909
:100B700009F4C7C0A8F4883709F467C038F4883688
:100B800009F463C0803709F460C0C9C0883809F42B
:100B9000B8C0803909F45FC0803809F0C0C05BC0BC
:100BA000803B09F486C038F4803A09F466C0883A7C
:100BB00009F47FC0B4C0803C09F4A7C0883C09F4A4
:100BC000A4C0883B09F48AC0AAC080913B0310C02E
:100BD00090915D0380915C03981770F5E0915D033F
:100BE00081E08E0F80935D03F0E0E45CFC4F808138
:100BF0008093BB0085EC86C080935E038EC0E0913D
:100C00005D0381E08E0F80935D038091BB00F0E077
:100C1000E45CFC4F808390915D0380915C036EC027
:100C2000E0915D0381E08E0F80935D038091BB00B6
:100C3000F0E0E45CFC4F808380915F0381116DC024
:100C400081E080933A0384EA61C083E0809360038B
:100C500010921303CFCF80911303803208F051C05C
:100C6000E091130381E08E0F809313038091BB000A
:100C7000F0E0ED50FD4F8083BDCF85EC8093BC004C
:100C80001092600380911303803230F4E0911303DB
:100C9000F0E0ED50FD4F10826091130370E0E091A1
:100CA0001403F091150383EF92E00995109213035A
:100CB00036C084E0809360031092F2021092F10239
:100CC000E0911603F091170309958091F1028111CB
:100CD00005C081E08093F1021092D102E091F2020E
:100CE00081E08E0F8093F202F0E0EF52FD4F8081A1
:100CF0008093BB009091F2028091F102981708F462
:100D000079CF85E88093BC000AC085EC8093BC0055
:100D10001092600304C010925E030E942602FF91AD
:100D2000EF91BF91AF919F918F917F916F915F9163
:100D30004F913F912F910F900FBE0F901F901895DC
:100D4000DF92EF92FF920F931F93CF93DF93CDB774
:100D5000DEB72C970FB6F894DEBF0FBECDBF7C0177
:100D60008B01D42E6FE771E08EE394E00E945D0466
:100D70008DE6B801D81641F0CE010A3011058CF08D
:100D8000043611059CF516C0CE010A30110534F465
:100D900007960E9473086EE072E011C004361105D8
:100DA00034F407960E9473086FE072E008C0083EB2
:100DB0001340E4F407960E94730860E172E0CE01EC
:100DC00001960E949004BE01695F7F4FCE0101969B
:100DD0000E94F903BC018EE394E00E947404CE01EA
:100DE00001960E948B04CE0107960CC001960E94CA
:100DF0007308BE016F5F7F4F8EE394E00E94200373
:100E0000CE0101960E948B04F70111821082138299
:100E10001282158214826EE374E0C7010E9474048A
:100E2000C7012C960FB6F894DEBF0FBECDBFDF9181
:100E3000CF911F910F91FF90EF90DF900895611572
:100E4000710579F0FB0101900020E9F73197AF01BE
:100E5000461B570BDC01ED91FC910280F381E02DE4
:100E6000099480E090E008953FB7F894809176046B
:100E700090917704A0917804B091790426B5A89B4D
:100E800005C02F3F19F00196A11DB11D3FBFBA2F1C
:100E9000A92F982F8827820F911DA11DB11DBC017C
:100EA000CD0142E0660F771F881F991F4A95D1F741
:100EB0000895CF93DF93FC01448155816081718156
:100EC00085E893E00E942401EC0168E372E085E884
:100ED00093E00E941F078C0F9D1FDF91CF91089513
:100EE000EF92FF920F931F93CF93DF93CDB7DEB7AF
:100EF000A1970FB6F894DEBF0FBECDBF7C01CB012A
:100F0000BA01F701118210821382128215821482B3
:100F10008E010F5F1F4F22E044E00E942214BC01AB
:100F2000C7010E945D04A1960FB6F894DEBF0FBE04
:100F3000CDBFDF91CF911F910F91FF90EF9008955A
:100F400020916004309161048217930738F4209156
:100F50005C0430915D042115310529F410927A0466
:100F60008AE794E00895820F931F089530918403D7
:100F7000313208F04BC0809160038111FCCF909119
:100F8000830322E02093600321E020935F032FEF8F
:100F900020935E0310925D0330935C03E3E6F3E07D
:100FA000ACE3B3E020E0321721F041914D932F5F85
:100FB000FACF10923B0320913B03990F922B909311
:100FC0003B0390913A03913061F410923A0390916F
:100FD0003B039093BB009091BC0093FDF8CF95EC40
:100FE00001C095EE9093BC00909160039230E1F3C4
:100FF00090915E039F3F79F080915E03803241F0D3
:1010000080915E03803331F084E005C081E003C04D
:1010100082E001C083E01092620310928403109278
:1010200061030895CF93DF93EB0191E09093610307
:1010300080938303109262031092840361E082E242
:1010400094E00E94B3026D2F82E294E00E94B3020A
:101050006C2F82E294E00E94B302DF91CF910C9456
:10106000B607909160039111FCCF91E090936003DB
:1010700040935F032FEF20935E0310925D03260FD2
:1010800020935C0390933B0390913B03880F892B43
:1010900080933B0380913A03813061F410923A03CC
:1010A00080913B038093BB008091BC0083FDF8CF0F
:1010B00085EC01C085EE8093BC0080916003813097
:1010C000E1F380915D03861710F460915D03ACE35A
:1010D000B3E0EAE1F3E080E0861721F09D9191937F
:1010E0008F5FFACF08950F931F93CF93DF93CDB700
:1010F000DEB762970FB6F894DEBF0FBECDBF8C018E
:10110000CB01F8011182108213821282158214829F
:101110004AE0BE016F5F7F4F0E946D14BE016F5F9A
:101120007F4FC8010E945D0462960FB6F894DEBF3F
:101130000FBECDBFDF91CF911F910F910895CF9337
:10114000DF93BC0185E893E00E941F07EC0168E390
:1011500072E085E893E00E941F078C0F9D1FDF91CE
:10116000CF910895BC0185E893E00C941F0790E0AF
:10117000FC01E752FE4F2491FC01EB53FE4F84919A
:10118000882399F090E0880F991FFC01E554FE4FE9
:10119000A591B491FC01EF54FE4F859194918FB7C6
:1011A000F894EC91E22BEC938FBF089590E0FC0152
:1011B000E356FE4F2491FC01E752FE4F3491FC01AF
:1011C000EB53FE4FE491EE2309F43CC0222339F1A6
:1011D000233091F038F42130A9F0223001F584B5A4
:1011E0008F7D12C0273091F02830A1F02430B9F45F
:1011F000809180008F7D03C0809180008F778093E5
:1012000080000DC084B58F7784BD09C08091B00087
:101210008F7703C08091B0008F7D8093B000F0E0A5
:10122000EE0FFF1FEF54FE4FA591B4919FB7F894B6
:10123000611104C08C913095382302C0EC913E2B93
:101240003C939FBF089510921903109218031092B7
:101250006203109284031092600381E080935F0325
:1012600010923A0361E082E10E94D60861E083E1D6
:101270000E94D608E9EBF0E080818E7F8083808138
:101280008D7F808388E48093B80085E48093BC00E0
:1012900088E592E0909317038093160389E592E026
:1012A000909315038093140308958F929F92AF92A9
:1012B000BF92CF92DF92EF92FF926B017C010E946E
:1012C00034074B015C01C114D104E104F104F1F0D5
:1012D0000E943407DC01CB0188199909AA09BB09CE
:1012E000883E9340A105B10570F321E0C21AD108F0
:1012F000E108F10888EE880E83E0981EA11CB11C5D
:10130000C114D104E104F10419F7DDCFFF90EF908F
:10131000DF90CF90BF90AF909F908F9008951F92D5
:101320000F920FB60F9211242F933F938F939F9399
:10133000AF93BF938091720490917304A091740451
:10134000B09175043091710423E0230F2D3720F400
:101350000196A11DB11D05C026E8230F0296A11D0F
:10136000B11D209371048093720490937304A09331
:101370007404B09375048091760490917704A091E1
:101380007804B09179040196A11DB11D8093760473
:1013900090937704A0937804B0937904BF91AF91B0
:1013A0009F918F913F912F910F900FBE0F901F90A3
:1013B0001895CF93DF93CDB7DEB7A4970FB6F89407
:1013C000DEBF0FBECDBF789484B5826084BD84B586
:1013D000816084BD85B5826085BD85B5816085BD30
:1013E00080916E00816080936E00109281008091E8
:1013F0008100826080938100809181008160809370
:101400008100809180008160809380008091B10094
:1014100084608093B1008091B00081608093B000BF
:1014200080917A00846080937A0080917A00826053
:1014300080937A0080917A00816080937A00809115
:101440007A00806880937A001092C1000FB6F894F9
:10145000A895809160008861809360001092600080
:101460000FBEE0919503F091960382E08083E091B6
:101470009103F09192031082E0919303F091940311
:101480008FEC808310929D03E0919903F0919A0371
:1014900086E08083E0919703F091980380818061DA
:1014A0008083E0919703F091980380818860808326
:1014B000E0919703F0919803808180688083E091A8
:1014C0009703F091980380818F7D80830E94230988
:1014D0000E94230980E092E09093700480936F044F
:1014E00084B1816284B980E285B982E10E94B70843
:1014F00083E10E94B7088FE00E94B70880E10E9454
:10150000B70881E10E94B70861E470E086E594E0E5
:101510000E945A0361E470E08CE594E00E945A0353
:1015200099E288E10FB6F894A895809360000FBE09
:101530009093600086E9282E312C97E8E92EF12C53
:1015400022E8C22ED12C80913C02882309F489C460
:1015500080E090E00E94A007FC018081873709F0BD
:10156000DAC027E030E043E050E06CE574E0CE0103
:1015700001960E94A504CE0101960E941503609376
:10158000CD027093CE028093CF029093D002CE0111
:1015900001960E948B042BE030E048E050E06CE5BF
:1015A00074E0CE0101960E94A50489819A8100977A
:1015B00019F00E94461403C060E070E0CB01709304
:1015C000CC026093CB02CE0101960E948B042FE0E7
:1015D00030E04CE050E06CE574E0CE0101960E94F2
:1015E000A50489819A81009719F00E94461403C0CE
:1015F00060E070E0CB017093CA026093C902CE0133
:1016000001960E948B0424E130E040E150E06CE55B
:1016100074E0CE0101960E94A50489819A81009709
:1016200019F00E94461403C060E070E0CB01709393
:10163000C8026093C702CE0101960E948B0428E184
:1016400030E045E150E06CE574E0CE0101960E9487
:10165000A504CE0101960E941503609316017093B4
:1016600017018093180190931901CE0101960E94F1
:101670008B0489E190E00E94A007FC0180818053E7
:10168000809315018AE190E00E94A007FC0180810F
:101690008053809314018BE190E00E94A007FC012D
:1016A00080818053809313018CE190E00E94A00719
:1016B000FC0180818053809312018DE190E00E94B3
:1016C000A007FC0180818053809311018FE190E09D
:1016D0000E94A007FC01808180538093100180E26A
:1016E00090E00E94A007FC018081805380930F014D
:1016F00081E290E00E94A007FC01808180538093EA
:101700000E0182E290E00E94A007FC0180818053DC
:1017100080930D014DC080E090E00E94A007FC0185
:101720008081833609F444C080E090E00E94A007E5
:10173000FC0180818437C1F4209160043091610400
:1017400041E050E06CE574E0CE0101960E94A504F2
:10175000BE016F5F7F4F80E594E00E942003CE01C1
:1017600001960E948B0424C080E090E00E94A007B4
:10177000FC018081853709F077C381E090E00E9409
:10178000A007FC018081823309F06EC382E090E003
:101790000E94A007FC018081843709F065C386E0C0
:1017A00090E00E94A007FC018081853609F05CC3AF
:1017B00080E090E00E94A007FC018081853709F459
:1017C0006FC30CF48DC4873709F028C781E080937C
:1017D000610386E680938303109262031092840370
:1017E0006CE671E0CE0101960E94900469817A81D5
:1017F00082E294E00E941F070E94B6076EE671E045
:1018000082E790E00E94731C892B29F168E572E061
:1018100080E090E00E94550941E064E186E60E9484
:101820003108109219038093180382E294E00E9419
:101830006A02909118038091190398130EC58AEAE1
:1018400092E00E9442146093C3027093C40280939A
:10185000C5029093C60210923C02CE0101960E94EE
:101860008B048090C3029090C402A090C502B090F7
:10187000C6028092BF029092C002A092C102B092B2
:10188000C20260916F04709170046368716C809102
:101890006C040E94120860916D0470E080E090E09A
:1018A0000E94550980916C040E94420500906E04CC
:1018B00002C0969587950A94E2F7BC0180E090E01B
:1018C0000E945D182AE037ED43EA5AE30E94BE18F1
:1018D00060933A0470933B0480933C0490933D04DE
:1018E0002091260130912701409128015091290132
:1018F0000E94BE18209122013091230140912401C1
:10190000509125010E94D7196093360470933704D3
:10191000809338049093390468EC70E080E090E0A4
:101920000E94550960916F04709170046368716D35
:1019300080916C040E94120860916D0470E080E058
:1019400090E00E94550980916C040E94420500902D
:101950006E0402C0969587950A94E2F7BC0180E078
:1019600090E00E945D182AE037ED43EA5AE30E94B6
:10197000BE186093320470933304809334049093C0
:10198000350420911E0130911F014091200150919A
:1019900021010E94BE1820911A0130911B01409133
:1019A0001C0150911D010E94D71960932E04709361
:1019B0002F0480933004909331048091130181119E
:1019C00064C5209136043091370440913804509119
:1019D00039046091CD027091CE028091CF02909136
:1019E000D0020E94D6192B013C0120E030E0A90171
:1019F0000E94791A18160CF0AAC42DEC3CEC4CE4A9
:101A00005DE3C301B2010E94581818160CF438C4E3
:101A10002DEC3CEC4CE45DE36091090170910A010E
:101A200080910B0190910C010E94BE186093A60258
:101A30007093A7028093A8029093A90264E771E0D3
:101A40008AE494E00E945D04809111018111D7C560
:101A5000A501940160911601709117018091180100
:101A6000909119010E94D6192B013C016093A202AA
:101A70007093A3028093A4029093A5022DEC3CECFA
:101A80004CEC5DEB0E94791A87FD08C568E771E0B0
:101A900084E494E00E945D0461E070E080E090E006
:101AA0000E94550961E08FE00E94D60861E070E075
:101AB00080E090E00E94550960E080E10E94D60835
:101AC0004090A2025090A3026090A4027090A502E0
:101AD00020E030E040E05FE3C301B2010E9458180B
:101AE00018160CF40CC58AE590E09093A10280933F
:101AF000A0026091BF027091C0028091C1029091DA
:101B0000C20200913A0410913B0420913C043091B0
:101B10003D0400939C0210939D0220939E023093FB
:101B20009F020091360410913704209138043091BF
:101B30003904009398021093990220939A023093EB
:101B40009B0200912E0410912F04209130043091BB
:101B500031040093940210939502209396023093DF
:101B60009702009132041091330420913404309193
:101B700035040093900210939102209392023093C7
:101B8000930201E812E022E047E00E9422146091F3
:101B90009C0270919D0280919E0290919F0202E7AB
:101BA00012E022E047E00E942214609198027091B6
:101BB000990280919A0290919B0203E612E022E042
:101BC00047E00E94221460919402709195028091E6
:101BD00096029091970204E512E022E047E00E940D
:101BE00022146091900270919102809192029091E2
:101BF000930205E412E022E047E00E94221481E80B
:101C000092E00E94B2088EE791E00E94B20882E75B
:101C100092E00E94B2088EE791E00E94B20883E64B
:101C200092E00E94B2088EE791E00E94B20884E53B
:101C300092E00E94B2088EE791E00E94B208C801CB
:101C40000E94B2088EE791E00E94B2082FE130E0D6
:101C500040E050E066E574E0CE0101960E94A504E4
:101C60004D815E8169817A8185E893E00E9424013B
:101C7000CE0101960E948B048EE791E00E94B2088B
:101C800089E392E00E949F086FE771E086E594E0A7
:101C90000E945D0470900D0160900E0150900F0144
:101CA00040901001109111010091120190901301C8
:101CB00080901401B09015016091A0027091A10272
:101CC00048E7CE0101960E94A0066091C70270917C
:101CD000C8024DE6CE0107960E94A0066091C90297
:101CE0007091CA0248E7CE010D960E94A00660914D
:101CF000CB027091CC0248E7CE0143960E94A00629
:101D00006091A6027091A7028091A8029091A90209
:101D10000E94431A48E7CE0149960E94A00618A2E5
:101D20001F8E1AA219A21CA21BA26AE474E0CE01A3
:101D30004F960E947404BE01675E7F4FCE014F969E
:101D40000E94F90360E871E00E94E003BE016D5E4D
:101D50007F4F0E94F903BE01635F7F4F0E94F9032A
:101D600062E871E00E94E003BE01695F7F4F0E945C
:101D7000F90364E871E00E94E00364E474E00E9407
:101D8000F903BE016F5F7F4F0E94F9036CE671E0BB
:101D90000E94E0036B2D0E94AF03682D0E94AF03E9
:101DA000692D0E94AF03602F0E94AF03612F0E9434
:101DB000AF03642D0E94AF03652D0E94AF03662D13
:101DC0000E94AF03672D0E94AF0369E372E00E9497
:101DD000E003BC0186E594E00E947404CE014F96B6
:101DE0000E948B04CE0149960E948B04CE0143963B
:101DF0000E948B04CE010D960E948B04CE010796A3
:101E00000E948B04CE0101960E948B041A821982D3
:101E10001C821B821E821D8266E574E0CE01019643
:101E20000E94740481E08093610382E080938303C5
:101E3000109262031092840369817A8182E294E0B5
:101E40000E941F070E94B607CE0101960E948B04D4
:101E500010923C026FE771E08CE594E00E945D0413
:101E6000A8950E9436046FCB80E090E00E94A00706
:101E7000FC018081863609F49BCC60E072E0CE01E3
:101E800001960E9490046CE574E0CE0101960E94D8
:101E9000F9030E945907CE0101960E948B04D8CF06
:101EA00081E090E00E94A007FC018081813309F06D
:101EB0009FC0109205011092060110920701109226
:101EC00008011092090110920A0110920B01109260
:101ED0000C0126E030E043E050E06CE574E0CE0118
:101EE00001960E94A504CE0101960E9415036093FD
:101EF0000501709306018093070190930801CE01BC
:101F000001960E948B042AE030E047E050E06CE547
:101F100074E0CE0101960E94A504CE0101960E94B4
:101F200015036093090170930A0180930B0190934C
:101F30000C01CE0101960E948B0440900501509047
:101F40000601609007017090080120E030E040E059
:101F500050E4C301B2010E94581818162CF080E01A
:101F600090E0A0E0B0E40EC020E030E046E153E4B1
:101F7000C301B2010E94791A87FD0CC080E090E095
:101F8000A6E1B3E48093050190930601A0930701B5
:101F9000B09308014090090150900A0160900B0134
:101FA00070900C0120E030E040E050E4C301B20149
:101FB0000E94581818162CF080E090E0A0E0B0E4E1
:101FC0000EC020E030E046E153E4C301B2010E94BC
:101FD000791A87FD65C080E090E0A6E1B3E48093C4
:101FE000090190930A01A0930B01B0930C0158C012
:101FF00081E090E00E94A007FC018081823309F01B
:102000004FC0109200011092010110920201109233
:10201000030126E030E043E050E06CE574E0CE01DF
:1020200001960E94A504CE0101960E9415036093BB
:102030000001709301018093020190930301CE018E
:1020400001960E948B044090000150900101609025
:1020500002017090030120E030E040E050E4C30151
:10206000B2010E94581818162CF080E090E0A0E011
:10207000B0E40EC020E030E046E153E4C301B20119
:102080000E94791A87FD0CC080E090E0A6E1B3E4DD
:102090008093000190930101A0930201B09303018A
:1020A0004091000150910101609102017091030182
:1020B000CE0101960E9470076CED71E0CE0107968B
:1020C0000E949004BE016F5F7F4FCE0107960E9471
:1020D000F9030E945907CE0107960E948B04B4CEE3
:1020E000833609F0B2C081E090E00E94A007FC01B5
:1020F00080818093040128E030E042E050E06CE50C
:1021000074E0CE0101960E94A504CE0101960E94C2
:1021100015036093410270934202809343029093AF
:102120004402CE0101960E948B042EE030E048E08C
:1021300050E06CE574E0CE0101960E94A504CE014A
:1021400001960E94150360933D0270933E028093B6
:102150003F0290934002CE0101960E948B04809131
:10216000040140913D0250913E0260913F02709106
:1021700040028033D9F0813389F5809141029091FA
:102180004202A0914302B091440280931E019093B9
:102190001F01A0932001B093210140931A01509395
:1021A0001B0160931C0170931D0118C080914102B6
:1021B00090914202A0914302B09144028093260183
:1021C00090932701A0932801B09329014093220105
:1021D000509323016093240170932501CE01019651
:1021E0000E94700740914102509142026091430267
:1021F00070914402CE0107960E94700766E871E074
:10220000CE010D960E949004BE01695F7F4FCE0102
:102210000D960E94F9036AED71E00E94E003BE0191
:102220006F5F7F4F0E94F9030E945907CE010D9600
:102230000E948B04CE0107960E948B04CE0101966A
:102240000E948B048AE991E005C0863609F000CE31
:102250008AEE91E00E949F08FBCD82E294E00E940A
:102260006A029091BE02E92FF0E0E655FD4F8083AF
:102270009F5F9093BE028111DCCA1092BE02DFCA3A
:102280002DEC3CEC4CEC5DE3C301B2010E9458180C
:1022900018162CF02DEC3CEC4CEC5DE3BDCB20E0B3
:1022A00030E040E05FE3C301B2010E945818181605
:1022B0002CF02DEC3CEC4CE45EE3AECB20E030E0C7
:1022C00040E45FE3C301B2010E94581818162CF0D5
:1022D0002AE939E949E95EE39FCB20E030E040E8B4
:1022E0005FE3C301B2010E94581818162CF020E0D9
:1022F00030E040E05FE390CB20E030E040E050E4AD
:10230000C301B2010E94581818162CF020E030E0EA
:1023100040E45FE381CB20E030E040E050E4C301E3
:10232000B2010E94791A18160CF088CB809109012D
:1023300090910A01A0910B01B0910C018093A6022B
:102340009093A702A093A802B093A90277CB20E0B4
:1023500030E0A901C301B2010E94581818160CF40C
:1023600089C02DEC3CEC4CE45DEBC301B2010E9452
:10237000791A87FD05C02DEC3CEC4CE45DE30EC002
:102380002DEC3CEC4CEC5DEBC301B2010E94791AE0
:1023900087FD17C02DEC3CEC4CEC5DE36091050132
:1023A0007091060180910701909108010E94BE186A
:1023B0006093A6027093A7028093A8029093A9024B
:1023C00056C020E030E040E05FEBC301B2010E9464
:1023D000791A87FD05C02DEC3CEC4CE45EE3DECFC2
:1023E00020E030E040E45FEBC301B2010E94791AC3
:1023F00087FD05C02AE939E949E95EE3CFCF20E04E
:1024000030E040E85FEBC301B2010E94791A87FD1A
:1024100005C020E030E040E05FE3C0CF20E030E0E6
:1024200040E050ECC301B2010E94791A87FD05C05B
:1024300020E030E040E45FE3B1CF20E030E040E076
:1024400050ECC301B2010E94581887FF10C0809160
:10245000050190910601A0910701B09108018093B8
:10246000A6029093A702A093A802B093A90266E3E4
:1024700072E0E6CA1092A6021092A7021092A80279
:102480001092A90266E771E0DBCA1092A6021092D0
:10249000A7021092A8021092A902D6CA2DEC3CEC19
:1024A0004CE45EE3C301B2010E94581887FF08CBD9
:1024B0006AE771E084E494E00E945D0461E070E00A
:1024C00080E090E00E94550960E08FE00E94D6080D
:1024D00061E070E080E090E00E94550961E080E1F9
:1024E0000E94D60877FA709477F870944092A2020E
:1024F0005092A3026092A4027092A502E1CA20E069
:1025000030E040E85FE3C301B2010E94581818169A
:102510001CF08FE590E0E9CA20E030E040E050E4B4
:10252000C301B2010E94581818161CF084E690E00E
:10253000DCCA20E030E040E450E4C301B2010E9474
:10254000581818161CF08EE690E0CFCA20E030E054
:1025500040E850E4C301B2010E94581818161CF05C
:1025600088E790E0C2CA20E030E040EA50E4C301CE
:10257000B2010E94581818162CF0D092A102C092F5
:10258000A002B7CA20E030E040EE50E4C301B2013F
:102590000E94581818162CF0F092A102E092A002A6
:1025A000A8CA20E030E040E151E4C301B2010E943A
:1025B000581818163CF0ECE8F0E0F093A102E09314
:1025C000A00297CA20E030E040E351E4C301B20129
:1025D0000E94581818161CF081E990E086CA20E085
:1025E00030E040E551E4C301B2010E94791A1816A7
:1025F0000CF07FCA3092A1022092A0027ACA6CE746
:1026000071E084E494E00E945D0461E080E10E9456
:10261000D60861E08FE00E94D6086BCA8A3709F0BD
:1026200017CC81E08093610386E680938303109248
:1026300062031092840365EA71E082E294E00E94F2
:102640001F070E94B60768E572E080E090E00E94F4
:10265000550941E064E186E60E94310810921903B1
:102660008093180382E294E00E946A02909118031A
:1026700080911903981769F082E294E00E946A023F
:102680009091BE029F5F9093BE028111EFCF109296
:10269000BE0210923C026CEA71E0CE0101960E94EB
:1026A000900460E574E0F1CB8EE394E00E948B042B
:1026B00084E494E00E948B048AE494E00E948B04FA
:1026C00080E594E00E948B0486E594E00E948B04F0
:1026D0008CE594E00C948B04E5E8F3E0138212821D
:1026E00088EE93E0A0E0B0E084839583A683B7836F
:1026F00024E331E03183208325EC30E035872487E3
:1027000024EC30E03787268720EC30E0318B208BBB
:1027100021EC30E0338B228B22EC30E0358B248BA4
:1027200026EC30E0378B268B118E128E138E148E92
:10273000E2E2F4E01382128284839583A683B78356
:1027400086E491E091838083ECE6F4E088E4808382
:102750001482138288E081831282E2E6F4E013821D
:10276000128288E591E0918380836FE771E08CE5C8
:1027700094E00E94900462E172E086E594E00E9499
:10278000900463E372E080E594E00E9490046CE7BB
:1027900071E08AE494E00E9490046CE771E084E4C4
:1027A00094E00E9490046FE771E08EE394E00E9451
:1027B000900420913A0430913B0440913C045091A4
:1027C0003D0460912601709127018091280190912C
:1027D00029010E94BE1820912201309123014091CD
:1027E0002401509125010E94D719609336047093FB
:1027F0003704809338049093390420913204309147
:102800003304409134045091350460911E0170915D
:102810001F0180912001909121010E94BE182091FA
:102820001A0130911B0140911C0150911D010E9421
:10283000D71960932E0470932F04809330049093E3
:1028400031040895EF920F931F93CF93DF93E80124
:1028500047FD02C034E001C034E1042E000C550BEA
:1028600057FF03C0519541955109E32E022F242FA4
:10287000AE010E94A714CE01DF91CF911F910F915D
:10288000EF900895662777270C9401161F93FC019B
:1028900099278827BC01E89411911032E9F3193087
:1028A00010F01E30C8F31B3251F01D3249F4689409
:1028B00006C00E947814610F711D811D911D119138
:1028C00010531A30B0F33EF4909580957095619551
:1028D0007F4F8F4F9F4F1F910895BB274A3031F490
:1028E000992322F4BDE2909581959F4F0C948E140C
:1028F000592F482F372F262F660F771F881F991FB4
:10290000660F771F881F991F620F731F841F951F03
:10291000660F771F881F991F0895BB27FB01552756
:10292000AA27880F991FAA1FA41710F0A41B83952C
:102930005051B9F7A05DAA3308F0A95DA1930097A3
:1029400079F7B111B1931192CB010C944818A9E019
:10295000B0E0EDEAF4E10C9490196A01122FB02E68
:102960002BE3201720F0FF24F394F00E02C02CE399
:10297000F22E0F2D27E0AE014F5F5F4F0E944F17E1
:10298000BC014981842F8970813031F0E1FC06C09F
:10299000E0FE06C090E205C09DE203C09BE201C0DC
:1029A00090E05E2D507143FF3CC0911102C083E066
:1029B00001C084E0811718F4212F281B01C020E0FA
:1029C00051110BC0F601822F30E2882319F03193A8
:1029D0008150FBCFC20ED11C20E0992329F0D601F3
:1029E0009C93F60131966F01C6010396E2FE0AC080
:1029F0003EE4D6013C9341E411964C931197129614
:102A00003C9306C03EE6F601308341E641833283C3
:102A1000FC01322F40E2332309F442C0419331508C
:102A2000FACF42FF44C0911102C083E001C084E0AC
:102A3000811718F4212F281B01C020E051110BC071
:102A4000F601822F30E2882319F031938150FBCFB9
:102A5000C20ED11C20E0992329F0D6019C93F601E7
:102A600031966F01C6010396E2FE0BC039E4D60130
:102A70003C933EE411963C93119736E412963C93B6
:102A800007C039E6F60130833EE6318336E632830D
:102A9000FC01322F40E2332319F041933150FBCF38
:102AA000FC01E20FF11D10828EEF9FEFA6C021E026
:102AB00030E0911102C020E030E0161617061CF439
:102AC000FB01319602C0E1E0F0E02E0F3F1FBB207A
:102AD00021F0EB2DF0E0319602C0E0E0F0E02E0FA7
:102AE0003F1FE12FF0E02E173F071CF4121B212F90
:102AF00001C020E08E2D887159F4F601822F30E25A
:102B0000882319F031938150FBCFC20ED11C20E0F5
:102B1000992329F0D6019C93F60131966F0151114A
:102B20000BC0F601822F90E3882319F09193815016
:102B3000FBCFC20ED11C20E00F2D060F9A81342F3F
:102B4000307144FF03C0913309F40150101624F48E
:102B5000093018F008E001C001E0AB0177FF02C0C6
:102B600040E050E0FB01E41BF50BA1E0B0E0AC0F4E
:102B7000BD1FEA0FFB1F8EE2A82E4B01801A9108A1
:102B80000B2D10E01195019511094F3FBFEF5B0729
:102B900021F4D601AC9211966D01641775072CF0E3
:102BA0008416950614F4818101C080E341505109D7
:102BB0003196D60111967D014017510724F0D601B8
:102BC0008C936701E2CF6417750739F4963320F4CC
:102BD000953319F4311101C081E3F6018083F701C7
:102BE000822F90E2882319F091938150FBCFF70157
:102BF000E20FF11D108280E090E02996ECE00C9449
:102C0000AC19A0E0B0E0E7E0F6E10C949019EC011B
:102C10006B016115710519F0FB01918380837E01C1
:102C2000FFEFEF1AFF0A0881802F90E00E9427181B
:102C3000892B11F0E701F3CF0D3239F47E0182E0E8
:102C4000E80EF11C098111E008C00B3229F47E0165
:102C500092E0E90EF11C098110E0E701219743E0C1
:102C600050E060E770E0CE010E943018892BC1F47B
:102C7000239645E050E06BE670E0CE010E943018EC
:102C8000892B09F42596C114D10419F0F601D183DA
:102C9000C0831111F6C060E070E080E89FE7FAC0E1
:102CA00043E050E068E670E0CE010E943018892BC6
:102CB00059F4C114D10409F4E9C0F2E0EF0EF11C9B
:102CC000F601F182E082E2C020E030E0A901C0E03C
:102CD000D0E0F70180EDA82EA00E89E08A1530F132
:102CE000912F9260B92E812F887012FF04C081113C
:102CF00024C0219622C081112197A5E0B0E00E9456
:102D00007F19DC01CB01880F991FAA1FBB1F9C01F3
:102D1000AD012A0D311D411D511D283989E93807A2
:102D2000480789E1580748F0166006C09EEFA912CF
:102D30000AC013FD40C01860B12E8FEFE81AF80AE0
:102D400000811B2DC6CF802F8F7D8534A1F580811A
:102D50008D3211F4106106C08B3221F0319661E0A2
:102D600070E004C08181329662E070E080538A3066
:102D700018F0E61BF70B1FC060E070E060389CE0C5
:102D800079075CF4DB01AA0FBB1FAA0FBB1F6A0FF8
:102D90007B1F660F771F680F711D3196DF0111973A
:102DA0008C9180538A3050F314FF03C07195619564
:102DB0007109C60FD71F11FF08C0C114D10429F033
:102DC000CF010197F60191838083CA01B9010E9466
:102DD0005D18212F2370233019F04B015C0106C0D0
:102DE0004B015C01B7FAB094B7F8B09420E030E042
:102DF000A901C501B4010E945818882309F43EC0F6
:102E0000D7FF06C0D195C195D10907E810E002C0EF
:102E10000FE910E06801F8E1CF1AD10890E2E92E3D
:102E2000F12CCE15DF0574F0F8012591359145910F
:102E30005491C501B4010E94BE184B015C01CE192A
:102E4000DF09EFCF04501109F594E7940C151D0527
:102E500041F78A2D880F8B2D881F8F3F49F020E086
:102E600030E0A901C501B4010E945818811106C0C3
:102E700082E290E090937C0480937B04C501B401CE
:102E800009C060E070E080E89FEF04C060E070E09F
:102E900080EC9FE7CDB7DEB7ECE00C94AC1928309E
:102EA00008F027E03327DA01990F311D87FD916083
:102EB00000966105710539F432602E5F3D9330E371
:102EC0002A95E1F708959F3F30F08038710561053C
:102ED00009F03C5F3C5F3D93913008F08068911DA4
:102EE000DF93CF931F930F93FF92EF92192F987F49
:102EF0009695E92F96959695E90FFF27E350FF4F9A
:102F000099273327EE24FF24A701E70105900894B1
:102F1000079428F4360FE71EF81E491F511D660F4F
:102F2000771F881F991F0694A1F70590079428F42E
:102F3000E70EF81E491F561FC11D770F881F991FE6
:102F4000661F0694A1F70590079428F4F80E491F10
:102F5000561FC71FD11D880F991F661F771F069424
:102F6000A1F70590079420F4490F561FC71FD81FDB
:102F7000990F661F771F881F0694A9F784911095F3
:102F8000177041F0D695C79557954795F794E794F4
:102F90001A95C1F7E3EAF0E0689415901591359120
:102FA0006591959105907FE27395E118F10A430BC5
:102FB000560BC90BD009C0F7E10CF11E431F561F79
:102FC000C91FD01D7EF4703311F48A95E6CFE894C2
:102FD000015030F0080F0AF40027021708F4202FE0
:102FE0002395022F7A3328F079E37D932A95E9F728
:102FF00010C07D932A9589F6069497956795379525
:1030000017951794E118F10A430B560BC90BD00919
:1030100098F023957E9173957A3308F070E37C9352
:103020002013B8F77E9170617D9330F0839571E342
:103030007D9370E32A95E1F71124EF90FF900F91B3
:103040001F91CF91DF91992787FD90950895911158
:103050000C942B19803219F089508550C8F70895C7
:10306000FB01DC014150504088F08D9181341CF00F
:103070008B350CF4805E659161341CF06B350CF47B
:10308000605E861B611171F3990B0895881BFCCF5C
:10309000DC01FC01672F71917723E1F7329704C0BF
:1030A0007C916D9370836291AE17BF07C8F308954A
:1030B0000E949A1808F481E00895E89409C097FBEB
:1030C0003EF490958095709561957F4F8F4F9F4FFF
:1030D0009923A9F0F92F96E9BB279395F695879543
:1030E00077956795B795F111F8CFFAF4BB0F11F406
:1030F00060FF1BC06F5F7F4F8F4F9F4F16C08823AD
:1031000011F096E911C0772321F09EE8872F762FE2
:1031100005C0662371F096E8862F70E060E02AF023
:103120009A95660F771F881FDAF7880F969587950F
:1031300097F90895990F0008550FAA0BE0E8FEEFE4
:1031400016161706E807F907C0F012161306E4076B
:10315000F50798F0621B730B840B950B39F40A2664
:1031600061F0232B242B252B21F408950A2609F442
:10317000A140A6958FEF811D811D08950E94D11851
:103180000C9445190E94371938F00E943E1920F01E
:10319000952311F00C942E190C94341911240C94CD
:1031A00079190E94561970F3959FC1F3950F50E05D
:1031B000551F629FF001729FBB27F00DB11D639FE9
:1031C000AA27F00DB11DAA1F649F6627B00DA11D8F
:1031D000661F829F2227B00DA11D621F739FB00D35
:1031E000A11D621F839FA00D611D221F749F3327A5
:1031F000A00D611D231F849F600D211D822F762F3E
:103200006A2F11249F5750409AF0F1F088234AF01A
:10321000EE0FFF1FBB1F661F771F881F9150504086
:10322000A9F79E3F510580F00C942E190C94791942
:103230005F3FE4F3983ED4F3869577956795B7950D
:10324000F795E7959F5FC1F7FE2B880F911D969527
:10325000879597F9089599278827089597F99F6783
:1032600080E870E060E008959FEF80EC089500240E
:103270000A941616170618060906089500240A94DB
:1032800012161306140605060895092E0394000C61
:1032900011F4882352F0BB0F40F4BF2B11F460FFF0
:1032A00004C06F5F7F4F8F4F9F4F089557FD905819
:1032B000440F551F59F05F3F71F04795880F97FBFA
:1032C000991F61F09F3F79F08795089512161306B4
:1032D0001406551FF2CF4695F1DF08C016161706E3
:1032E0001806991FF1CF8695710561050894089518
:1032F000E894BB2766277727CB0197F908950E94AA
:10330000C119A59F900DB49F900DA49F800D911D94
:10331000112408952F923F924F925F926F927F9265
:103320008F929F92AF92BF92CF92DF92EF92FF92D5
:103330000F931F93CF93DF93CDB7DEB7CA1BDB0B81
:103340000FB6F894DEBF0FBECDBF09942A88398826
:1033500048885F846E847D848C849B84AA84B9842D
:10336000C884DF80EE80FD800C811B81AA81B98139
:10337000CE0FD11D0FB6F894DEBF0FBECDBFED014D
:103380000895A29FB001B39FC001A39F700D811D3E
:103390001124911DB29F700D811D1124911D08955E
:1033A000EE0FFF1F0590F491E02D09945058BB27B4
:1033B000AA270E94EE190C9445190E94371938F07B
:1033C0000E943E1920F039F49F3F19F426F40C9422
:1033D00034190EF4E095E7FB0C942E19E92F0E94A6
:1033E000561958F3BA17620773078407950720F038
:1033F00079F4A6F50C9478190EF4E0950B2EBA2FFB
:10340000A02D0B01B90190010C01CA01A0011124EA
:10341000FF27591B99F0593F50F4503E68F11A1696
:10342000F040A22F232F342F4427585FF3CF469527
:1034300037952795A795F0405395C9F77EF41F1649
:10344000BA0B620B730B840BBAF09150A1F0FF0F13
:10345000BB1F661F771F881FC2F70EC0BA0F621FFF
:10346000731F841F48F4879577956795B795F795EF
:103470009E3F08F0B0CF9395880F08F09927EE0F84
:103480009795879508950E944A1A6894B1110C94F3
:10349000791908950E945E1988F09F5798F0B92F06
:1034A0009927B751B0F0E1F0660F771F881F991F79
:1034B0001AF0BA95C9F714C0B13091F00E9478198A
:1034C000B1E008950C947819672F782F8827B85F9A
:1034D00039F0B93FCCF3869577956795B395D9F7D1
:1034E0003EF490958095709561957F4F8F4F9F4FDB
:1034F00008950E949A1808F48FEF08950F931F9370
:10350000CF93DF938230910510F482E090E0E09158
:103510007F04F091800420E030E0A0E0B0E030973C
:1035200019F1408151810281138148175907C8F070
:103530008417950769F4109731F012960C9312973F
:1035400013961C9327C000937F041093800422C01D
:103550002115310519F04217530718F49A01BD01DE
:10356000EF01DF01F801DBCF21153105F9F0281B50
:10357000390B2430310580F48A819B8161157105F6
:1035800021F0FB019383828304C090938004809395
:103590007F04FE01329644C0FE01E20FF31F8193C7
:1035A000919322503109398328833AC020917D04B8
:1035B00030917E04232B41F420912C0130912D0178
:1035C00030937E0420937D0420912A0130912B01B9
:1035D0002115310541F42DB73EB740912E01509190
:1035E0002F01241B350BE0917D04F0917E04E2173E
:1035F000F307A0F42E1B3F0B2817390778F0AC0116
:103600004E5F5F4F2417350748F04E0F5F1F5093F2
:103610007E0440937D048193919302C0E0E0F0E04A
:10362000CF01DF91CF911F910F910895CF93DF9339
:10363000009709F481C0FC01329713821282A09195
:103640007F04B0918004109781F420813181820F32
:10365000931F20917D0430917E042817390751F57E
:10366000F0937E04E0937D0467C0ED0120E030E03C
:10367000CE17DF0740F44A815B819E014115510559
:10368000F1F0EA01F5CFD383C28340815181840FE9
:10369000951FC817D90759F488819981840F951F00
:1036A0000296918380838A819B81938382832115F3
:1036B000310529F4F0938004E0937F043DC0E901D3
:1036C000FB83EA8349915991C40FD51FEC17FD077D
:1036D00061F480819181840F951F0296E90199839D
:1036E0008883828193819B838A83E0E0F0E0129655
:1036F0008D919C911397009719F0FD01DC01F7CF94
:103700008D919C9111979D012E5F3F4F820F931FCA
:1037100020917D0430917E042817390769F4309791
:1037200029F41092800410927F0402C01382128246
:10373000B0937E04A0937D04DF91CF910895A0E023
:10374000B0E0E5EAFBE10C948E19EC01009721F45E
:10375000CB010E947E1AB4C0FC01E60FF71F9C014A
:1037600022503109E217F30708F4A8C0D9010D91DE
:103770001C91119706171707B0F00530110508F4D2
:103780009BC0C80104978617970708F495C002509C
:103790001109061B170B019311936D937C93CF01B5
:1037A0000E94161B89C05B01A01AB10A4C01800E51
:1037B000911EA0917F04B0918004612C712CE12CAA
:1037C000F12C109709F446C08D919C911197A81582
:1037D000B905B1F56C0142E0C40ED11CCA14DB047A
:1037E00078F14C018A189B08640142E0C40ED11C98
:1037F0001296BC9012971396AC91B5E0CB16D104FB
:1038000040F0B282A38391828082D9016D937C9330
:1038100009C00E5F1F4F800F911FF90191838083B4
:10382000EB2DFA2FE114F10431F0D7011396FC933C
:10383000EE93129741C0F0938004E0937F043CC064
:103840006816790608F43C017D0112960D90BC9132
:10385000A02DB7CF80917D0490917E0488169906A3
:10386000E1F466167706C8F480912A0190912B0145
:10387000009741F48DB79EB740912E0150912F01D2
:10388000841B950BE817F907C8F4F0937E04E093C6
:103890007D04F901718360830FC0CB010E947E1A01
:1038A0007C01009759F0A801BE010E946A1CCE015C
:1038B0000E94161BC70104C0CE0102C080E090E048
:1038C000CDB7DEB7EEE00C94AA1981E090E0F89451
:1038D0000C94831CFB01DC0102C001900D9241504D
:1038E0005040D8F70895FB01DC018D9101908019BB
:1038F0000110D9F3990B0895FB01DC0101900D92A1
:103900000020E1F7089510E0C8EFD0E004C0FE0108
:103910000E94D0192196C93FD107C9F7F894FFCF6B
:103920000000164330000016430000164301010159
:103930000101010101010000C841000080C09A9905
:10394000593FC3F558C052B85E3F00008104800063
:1039500000000000B70124014E0104027F015D0157
:10396000710100000000B3028602E2025A027E02E8
:103970006A025B0200000000F9022401E202230156
:1039800000000000E5022401E20223017200736CD2
:103990006565700062004E00630065006E000900FE
:1039A00066006D00740053656E736F722063616C06
:1039B000696272617465643A200043414C49425225
:1039C00041444F210063616C2C323600202D2D2D97
:1039D0002D2053656E736F722041746C6173205398
:1039E0006369656E74696669632043616C696272BC
:1039F00061646F202D2D2D2D203A2000556D6272AF
:103A0000616C5F54656D703A2000526573706F6E23
:103A10006469656E646F20636F6E73756C746100AA
:103A20006261642076616C69646174653A0030306B
:103A3000300062303030663030303030306D303011
:103A40003030746E303030723131313131313131AA
:0C3A5000310A006E616461000D0A000084
:00000001FF
